0000  0000000  1  00000000  GSCAMCD      01009525000A. LOACKER SPA                VIA GASTERER 3                RENON/AUNA DI SOTTO           BZ        39050     121SE227809_1  202109061600148988     20210907GSCAMCD        00000000  000000000GS CAMERI                     STRADA PROVINCIALE CAMERI     CAMERI                        NO        28062     A. LOACKER SPA      00045000909000000085800000000000000000  0000000000000   0000000000000   00000          0000000000000             0000000000000   00000000PA000002021090800000000T        0000 FR 06.30-12 (CROSS D. H5-10)  PRENOTARE TESI  X HKN CONSEGNA DO  1       FRE      000000060000000000000000000000000000  000000000  0000000000000     50109                                                                                                    202109070000121CA130426    20210907                                                                                                                                                      0081065845                                        11480595                                          #0081065845 RIF.CS: Martina Paltenghi# Telefono destinatario merce: 0321-511111ATTENZIONE!! Cliente mono referenza!                                                                                                                                                                                         N                               
0000  0000000  1  00000000  MAPIE        01009525000A. LOACKER SPA                VIA GASTERER 3                RENON/AUNA DI SOTTO           BZ        39050     121SE229008_1  202109071600148990     20210907T1-MAPIE - Guma00000000  000000000GS GROSS IPER                 VIA MILANO 4                  Vigliano Biellese             BI        13856     A. LOACKER SPA      00005000304400000010100000000000000000  0000000000000   0000000000000   00000          0000000000000             0000000000000   00000000PA000002021090900000000T        0000 FR 7-13 - TAX NO TEL                                             1       FRE      000000060000000000000000000000000000  000000000  0000000000000     3961                                                                                                     202109070000121CA130426    20210907                                                                                                                                                      0081066703                                        4476058                                           #0081066703 RIF.CS: Sonja Lang# Telefono destinatario merce: 015-8159111ATTENZIONE!! Cliente mono referenza!  #0081066708 RIF.CS: Sonja Lang# Telefono destinatario merce: 015-8159111ATTENZIONE!! Cliente mono referenza!  #0081066712 RIF.CS: Sonja Lang# Telefono destinatario merce: 015-8159111ATTENZION                               
0000  0000000  1  00000000  MAPIE        01009525000A. LOACKER SPA                VIA GASTERER 3                RENON/AUNA DI SOTTO           BZ        39050     121SE229008_1  202109071600148991     20210907T1-MAPIE - Guma00000000  000000000GS GROSS IPER                 VIA MILANO 4                  Vigliano Biellese             BI        13856     A. LOACKER SPA      00014000190700000016900000000000000000  0000000000000   0000000000000   00000          0000000000000             0000000000000   00000000PA000002021090900000000T        0000 FR 7-13 - TAX NO TEL                                             1       FRE      000000060000000000000000000000000000  000000000  0000000000000     3961                                                                                                     202109070000121CA130426    20210907                                                                                                                                                      0081066708                                        4476048                                           #0081066703 RIF.CS: Sonja Lang# Telefono destinatario merce: 015-8159111ATTENZIONE!! Cliente mono referenza!  #0081066708 RIF.CS: Sonja Lang# Telefono destinatario merce: 015-8159111ATTENZIONE!! Cliente mono referenza!  #0081066712 RIF.CS: Sonja Lang# Telefono destinatario merce: 015-8159111ATTENZION                               
0000  0000000  1  00000000  MAPIE        01009525000A. LOACKER SPA                VIA GASTERER 3                RENON/AUNA DI SOTTO           BZ        39050     121SE229008_1  202109071600148992     20210907T1-MAPIE - Guma00000000  000000000GS GROSS IPER                 VIA MILANO 4                  Vigliano Biellese             BI        13856     A. LOACKER SPA      00007000330100000012000000000000000000  0000000000000   0000000000000   00000          0000000000000             0000000000000   00000000PA000002021090900000000T        0000 FR 7-13 - TAX NO TEL                                             1       FRE      000000060000000000000000000000000000  000000000  0000000000000     3961                                                                                                     202109070000121CA130426    20210907                                                                                                                                                      0081066712                                        4476040                                           #0081066703 RIF.CS: Sonja Lang# Telefono destinatario merce: 015-8159111ATTENZIONE!! Cliente mono referenza!  #0081066708 RIF.CS: Sonja Lang# Telefono destinatario merce: 015-8159111ATTENZIONE!! Cliente mono referenza!  #0081066712 RIF.CS: Sonja Lang# Telefono destinatario merce: 015-8159111ATTENZION                               
0000  0000000  1  00000000  MAPIE        01009525000A. LOACKER SPA                VIA GASTERER 3                RENON/AUNA DI SOTTO           BZ        39050     121SE229008_2  202109071600148989     20210907T1-MAPIE - Guma00000000  000000000GS                            VIA CIRCONVALLAZIOE, 74       Acqui Terme                   AL        15011     A. LOACKER SPA      00009000109800000009100000000000000000  0000000000000   0000000000000   00000          0000000000000             0000000000000   00000000PA000002021090900000000T        0000 FR 0144-359811 (0144-359818) 7-12                                1       FRE      000000060000000000000000000000000000  000000000  0000000000000     3328                                                                                                     202109070000121CA130426    20210907                                                                                                                                                      0081066711                                        106618                                            #0081066711 RIF.CS: Sonja Lang# Telefono destinatario merce: 0144-359811ATTENZIONE!! Cliente mono referenza!                                                                                                                                                                                                N                               
0000  0000000  1  00000000  MAZ5         01009525000A. LOACKER SPA                VIA GASTERER 3                RENON/AUNA DI SOTTO           BZ        39050     121SE229005_1  202109071600148997     20210907T1-MAZ5 - Mazzo00000000  000000000GS SPA CANALE GROSS IPER      Lungo stura Lazio, 97         Torino                        TO        10156     A. LOACKER SPA      00004000209200000007600000000000000000  0000000000000   0000000000000   00000          0000000000000             0000000000000   00000000PA000002021090900000000T        0000 FR (LUN-GIOV 8/13)- (VEN 8/12) - RICEVIM BOLLE H 8-11.30         1       FRE      000000090000000000000000000000000000  000000000  0000000000000     24908                                                                                                    202109070000121CA130426    20210907                                                                                                                                                      0081066701                                        4476099                                           #0081066701 RIF.CS: Sonja Lang# Telefono destinatario merce: 011-2733667ATTENZIONE!! Cliente mono referenza!                                                                                                                                                                                                N                               
0000  0000000  1  00000000  MAZ5         01009525000A. LOACKER SPA                VIA GASTERER 3                RENON/AUNA DI SOTTO           BZ        39050     121SE229005_2  202109071600148996     20210907T1-MAZ5 - Mazzo00000000  000000000GS SPA - BUROLO DOCKS         S.S. DEL LAGO DI VIVERONE, 36 Burolo                        TO        10010     A. LOACKER SPA      00009000118200000011200000000000000000  0000000000000   0000000000000   00000          0000000000000             0000000000000   00000000PA000002021090900000000T        0000 FR ricevimento dalle 7.00 alle 12.00 - 13.00 a chiusura (ricevi  1       FRE      000000090000000000000000000000000000  000000000  0000000000000     9121                                                                                                     202109070000121CA130426    20210907                                                                                                                                                      0081066713                                        1066267                                           #0081066713 RIF.CS: Sonja Lang# Telefono destinatario merce: 0125-675500ATTENZIONE!! Cliente mono referenza!                                                                                                                                                                                                N                               
0000  0000000  1  00000000  MAZ5         01009525000A. LOACKER SPA                VIA GASTERER 3                RENON/AUNA DI SOTTO           BZ        39050     121SE229005_3  202109071600148994     20210907T1-MAZ5 - Mazzo00000000  000000000GS S.P.A                      VIA XXV APRILE, 206           Nichelino                     TO        10042     A. LOACKER SPA      00016000545500000017500000000000000000  0000000000000   0000000000000   00000          0000000000000             0000000000000   00000000PA000002021090900000000T        0000 FR 6.30/10.30 - TAX NO TEL                                       1       FRE      000000090000000000000000000000000000  000000000  0000000000000     13023                                                                                                    202109070000121CA130426    20210907                                                                                                                                                      0081066800                                        1068000                                           #0081066800 RIF.CS: Sonja Lang# Telefono destinatario merce: 011-3982811ATTENZIONE!! Cliente mono referenza!  #0081066801 RIF.CS: Sonja Lang# Telefono destinatario merce: 011-3982811ATTENZIONE!! Cliente mono referenza!                                                                                  N                               
0000  0000000  1  00000000  MAZ5         01009525000A. LOACKER SPA                VIA GASTERER 3                RENON/AUNA DI SOTTO           BZ        39050     121SE229005_3  202109071600148995     20210907T1-MAZ5 - Mazzo00000000  000000000GS S.P.A                      VIA XXV APRILE, 206           Nichelino                     TO        10042     A. LOACKER SPA      00007000174200000009100000000000000000  0000000000000   0000000000000   00000          0000000000000             0000000000000   00000000PA000002021090900000000T        0000 FR 6.30/10.30 - TAX NO TEL                                       1       FRE      000000090000000000000000000000000000  000000000  0000000000000     13023                                                                                                    202109070000121CA130426    20210907                                                                                                                                                      0081066801                                        1068007                                           #0081066800 RIF.CS: Sonja Lang# Telefono destinatario merce: 011-3982811ATTENZIONE!! Cliente mono referenza!  #0081066801 RIF.CS: Sonja Lang# Telefono destinatario merce: 011-3982811ATTENZIONE!! Cliente mono referenza!                                                                                  N                               
0000  0000000  1  00000000  MAZ5         01009525000A. LOACKER SPA                VIA GASTERER 3                RENON/AUNA DI SOTTO           BZ        39050     121SE229005_4  202109071600148993     20210907T1-MAZ5 - Mazzo00000000  000000000GS S.P.A                      VIA XXV APRILE, 206           Nichelino                     TO        10042     A. LOACKER SPA      00002000064000000002200000000000000000  0000000000000   0000000000000   00000          0000000000000             0000000000000   00000000PA000002021091000000000T        0000 FR 6.30/10.30 - TAX NO TEL                                       1       FRE      000000090000000000000000000000000000  000000000  0000000000000     13023                                                                                                    202109070000121CA130426    20210907                                                                                                                                                      0081066849                                        1068009                                           #0081066849 RIF.CS: Sonja Lang# Telefono destinatario merce: 011-3982811ATTENZIONE!! Cliente mono referenza!                                                                                                                                                                                                N                               
