B058M106726060015 A020000000000010231334  090000000003000000000003000000003C0000139746     CONAD CESENA        14109       0105481130013530SG DONUT LAMPONE CHEESECAKE   000003951000022800000000000        000000                2022110720221110000000000 0081421567     0000202211070081421567     001420221108 00000000130543599 STD10D            CONAD CESENA                                      VIAL LUCCHI 525                    CESENA                                FC47521C00000000030000000000030002340730000228000000000000000010000000000******************************1026
B058M106726060014 A020000000000010231328  090000000002000000000002000000002C0000139746     CONAD CESENA        14109       0105481130013530SG DONUT CRÈME BRULÈE         000003950000024000000000000        000000                2022110720221110000000000 0081421567     0000202211070081421567     001320221108 00000000130543593 STD10D            CONAD CESENA                                      VIAL LUCCHI 525                    CESENA                                FC47521C00000000020000000000020002340730000240000000000000000010000000000******************************1026
B058M106726060012 A020000000000010215324  090000000010000000000010000000010C0000139746     CONAD CESENA        14109       0105481130013530OREO DONUT MB                 000004253000024000000000000        000000                2022110720221110000000000 0081421567     0000202211070081421567     001220221108 00000000130543545 STD10D            CONAD CESENA                                      VIAL LUCCHI 525                    CESENA                                FC47521C00000000100000000000100002340730000240000000000000000010000000000******************************1026
B058M106726060010 A020000000000010214918  090000000002000000000002000000002C0000139746     CONAD CESENA        14109       0105481130013530GIRELLA ALL'UVETTA BDF        000005700000031200000000000        000000                2022110720221110000000000 0081421567     0000202211070081421567     001020221108 00000000130543531 STD10D            CONAD CESENA                                      VIAL LUCCHI 525                    CESENA                                FC47521C00000000020000000000020002340730000312000000000000000010000000000******************************1026
B058M106726060008 A020000000000010170251  090000000005000000000005000000005C0000139746     CONAD CESENA        14109       0105481130013530SG DONUT ZEBRATO CIOCCOLATO   000004380000022800000000000        000000                2022110720221110000000000 0081421567     0000202211070081421567     000720221108 00000000130543519 STD10D            CONAD CESENA                                      VIAL LUCCHI 525                    CESENA                                FC47521C00000000050000000000050002340730000228000000000000000010000000000******************************1026
B058M106726060004 A020000000000010187357  090000000002000000000002000000002C0000139746     CONAD CESENA        14109       0105481130013530MAXI MUFFIN AI MIRTILLI       000003464000004914000000000        000000                2022110720221110000000000 0081421567     0000202211070081421567     000820221108 00000000130543490 STD10D            CONAD CESENA                                      VIAL LUCCHI 525                    CESENA                                FC47521C00000000020000000000020002340730000049140000000000000010000000000******************************1026
B058M106726060013 A020000000000010231336  090000000004000000000004000000004C0000139746     CONAD CESENA        14109       0105481130013530SG DONUT CHOCOLATE CAKE       000004140000024000000000000        000000                2022110720221110000000000 0081421567     0000202211070081421567     001520221108 00000000130543585 STD10D            CONAD CESENA                                      VIAL LUCCHI 525                    CESENA                                FC47521C00000000040000000000040002340730000240000000000000000010000000000******************************1026
B058M106726060006 A020000000000010083672  090000000002000000000002000000002C0000139746     CONAD CESENA        14109       0105481130013530DONUT FARCITO NOCCIOLA        000003948000022800000000000        000000                2022110720221110000000000 0081421567     0000202211070081421567     000420221108 00000000130543506 STD10D            CONAD CESENA                                      VIAL LUCCHI 525                    CESENA                                FC47521C00000000020000000000020002340730000228000000000000000010000000000******************************1026
B058M106726060011 A020000000000010209299  090000000002000000000002000000002C0000139746     CONAD CESENA        14109       0105481130013530MUFFIN CACAO E NOCCIOLA       000002130000011625000000000        000000                2022110720221110000000000 0081421567     0000202211070081421567     000920221108 00000000130543538 STD10D            CONAD CESENA                                      VIAL LUCCHI 525                    CESENA                                FC47521C00000000020000000000020002340730000116250000000000000010000000000******************************1026
B058M106726060005 A020000000000010083658  090000000002000000000002000000002C0000139746     CONAD CESENA        14109       0105481130013530DONUT CARAMELLO+RISO SOFFIATO 000003880000022800000000000        000000                2022110720221110000000000 0081421567     0000202211070081421567     000220221108 00000000130543496 STD10D            CONAD CESENA                                      VIAL LUCCHI 525                    CESENA                                FC47521C00000000020000000000020002340730000228000000000000000010000000000******************************1026
B058M106726060007 A020000000000010083670  090000000002000000000002000000002C0000139746     CONAD CESENA        14109       0105481130013530DONUT FRUTTI DI BOSCO         000003654000022800000000000        000000                2022110720221110000000000 0081421567     0000202211070081421567     000320221108 00000000130543513 STD10D            CONAD CESENA                                      VIAL LUCCHI 525                    CESENA                                FC47521C00000000020000000000020002340730000228000000000000000010000000000******************************1026
B058M106726060009 A020000000000010167101  090000000004000000000004000000004C0000139746     CONAD CESENA        14109       0105481130013530B&B SG PINKY DONUT            000003281000022800000000000        000000                2022110720221110000000000 0081421567     0000202211070081421567     000620221108 00000000130543526 STD10D            CONAD CESENA                                      VIAL LUCCHI 525                    CESENA                                FC47521C00000000040000000000040002340730000228000000000000000010000000000******************************1026
B058M106726060002 A020000000000010242636  090000000002000000000002000000002C0000139746     CONAD CESENA        14109       0105481130013530SG&B DONUT FARC.MIRTILLI      000003700000022800000000000        000000                2022110720221110000000000 0081421567     0000202211070081421567     001720221108 00000000130543478 STD10D            CONAD CESENA                                      VIAL LUCCHI 525                    CESENA                                FC47521C00000000020000000000020002340730000228000000000000000010000000000******************************1026
B058M106726060003 A020000000000010240159  090000000002000000000002000000002C0000139746     CONAD CESENA        14109       0105481130013530SG TRECCIA AL CARAMELLO SALATO000004910000016240000000000        000000                2022110720221110000000000 0081421567     0000202211070081421567     001620221108 00000000130543484 STD10D            CONAD CESENA                                      VIAL LUCCHI 525                    CESENA                                FC47521C00000000020000000000020002340730000162400000000000000010000000000******************************1026
B058M106726060001 A020000000000010246708  090000000010000000000010000000010C0000139746     CONAD CESENA        14109       0105481170013530B&B PINK SPRINKLE DONUT       000003126000019720000000000        000000                2022110720221110000000000 0081421567     0000202211070081421567     001920221108 00000000130543467 STD10D            CONAD CESENA                                      VIAL LUCCHI 525                    CESENA                                FC47521C00000000100000000000100002340730000197200000000000000010000000000******************************1026
B058M106726060017 A020000000000010247591  090000000003000000000003000000003C0000139746     CONAD CESENA        14109       0105481130013530DONUT CARAMELLO SAL.E NOCIOLA 000003880000022800000000000        000000                2022110720221110000000000 0081421567     0000202211070081421567     002020221108 00000000130543618 STD10D            CONAD CESENA                                      VIAL LUCCHI 525                    CESENA                                FC47521C00000000030000000000030002340730000228000000000000000010000000000******************************1026
B058M106726060016 A020000000000010122750  090000000001000000000001000000001C0000139746     CONAD CESENA        14109       0105481130013530STRUDEL DI MELE               000008750000016800000000000        000000                2022110720221110000000000 0081421567     0000202211070081421567     000520221108 00000000130543612 STD10D            CONAD CESENA                                      VIAL LUCCHI 525                    CESENA                                FC47521C00000000010000000000010002340730000168000000000000000010000000000******************************1026
B058M106726060018 A020000000000010248029  090000000001000000000001000000001C0000139746     CONAD CESENA        14109       0105481130013530KRANZ                         000004527000019240000000000        000000                2022110720221110000000000 0081421567     0000202211070081421567     002120221108 00000000130543626 STD10D            CONAD CESENA                                      VIAL LUCCHI 525                    CESENA                                FC47521C00000000010000000000010002340730000192400000000000000010000000000******************************1026
