O009M106727230001 A020000000000010221642    0000000090000000000006000000006C0030006075     TOGNO GIUSEPPE      10435       0100000000003410GREEN BELPAN                  000015200000045600000000000        00000CSM              2022110820221110000000000 0080010635     000020221108               000000000000 00000000091015598 STD10D            TOGNO GIUSEPPE                                    VIA LANFRANCHI, 13                 GRAVELLONA TOCE                    IT VB28883C00000000000000000000000000000000000000000000000000000000000000000******************************FIFO
O009M106727230002 A020000000000010221642    0000000015000000000001000000001C0030006075     TOGNO GIUSEPPE      10435       0100000000003410GREEN BELPAN                  000015200000045600000000000        00000CSM              2022110820221110000000000 0080010635     000020221108               000000000000 00000000091015621 STD10D            TOGNO GIUSEPPE                                    VIA LANFRANCHI, 13                 GRAVELLONA TOCE                    IT VB28883C00000000000000000000000000000000000000000000000000000000000000000******************************FIFO
O009M106727230003 A020000000000010184882    0000000030000000000002000000002C0030006075     TOGNO GIUSEPPE      10435       0100000000003410PRO DIRECT                    000015200000048000000000000        00000CSM              2022110820221110000000000 0080010635     000020221108               000000000000 00000000091015629 STD10D            TOGNO GIUSEPPE                                    VIA LANFRANCHI, 13                 GRAVELLONA TOCE                    IT VB28883C00000000000000000000000000000000000000000000000000000000000000000******************************FIFO
O009M106727230004 A020000000000010126996    0000000025000000000005000000005C0030006075     TOGNO GIUSEPPE      10435       0100000000003410CREMA LIMONE                  000005400000008379000000000        00000CSM              2022110820221110000000000 0080010635     000020221108               000000000000 00000000091015639 STD10D            TOGNO GIUSEPPE                                    VIA LANFRANCHI, 13                 GRAVELLONA TOCE                    IT VB28883C00000000000000000000000000000000000000000000000000000000000000000******************************FIFO
O009M106727230005 A020000000000010223729    0000000030000000000002000000002C0030006075     TOGNO GIUSEPPE      10435       0100000000003410WALKORN CEREALI ANTICHI RUSTIQ000015120000030400000000000        00000CSM              2022110820221110000000000 0080010635     000020221108               000000000000 00000000091015660 STD10D            TOGNO GIUSEPPE                                    VIA LANFRANCHI, 13                 GRAVELLONA TOCE                    IT VB28883C00000000000000000000000000000000000000000000000000000000000000000******************************FIFO
O009M106727230006 A020000000000010210875    0000000018000000000003000000003C0030006075     TOGNO GIUSEPPE      10435       0100000000003410FARCITURA MIELE E FRUTTI ROSSI000006200000020520000000000        00000CSM              2022110820221110000000000 0080010635     000020221108               000000000000 00000000091015669 STD10D            TOGNO GIUSEPPE                                    VIA LANFRANCHI, 13                 GRAVELLONA TOCE                    IT VB28883C00000000000000000000000000000000000000000000000000000000000000000******************************FIFO
O009M106727230007 A020000000000010217806    0000000010000000000001000000001C0030006075     TOGNO GIUSEPPE      10435       0100000000003410GENUIT START                  000010500000082080000000000        00000CSM              2022110820221110000000000 0080010635     000020221108               000000000000 00000000091015682 STD10D            TOGNO GIUSEPPE                                    VIA LANFRANCHI, 13                 GRAVELLONA TOCE                    IT VB28883C00000000000000000000000000000000000000000000000000000000000000000******************************FIFO
O009M106727230008 A020000000000010117024    0000000045000000000003000000003C0030006075     TOGNO GIUSEPPE      10435       0100000000003410VECCHIA MADRE BIANCA PAST.15KG000015150000025410000000000        00000CSM              2022110820221110000000000 0080010635     000020221108               000000000000 00000000091015696 STD10D            TOGNO GIUSEPPE                                    VIA LANFRANCHI, 13                 GRAVELLONA TOCE                    IT VB28883C00000000000000000000000000000000000000000000000000000000000000000******************************FIFO
O009M106727230009 A020000000000010260618    0000000010000000000001000000001C0030006075     TOGNO GIUSEPPE      10435       0100000000003410NOBLESSE GMEL QCK MB          000010350000015252000000000        00000CSM              2022110820221110000000000 0080010635     000020221108               000000000000 00000000091015707 STD10D            TOGNO GIUSEPPE                                    VIA LANFRANCHI, 13                 GRAVELLONA TOCE                    IT VB28883C00000000000000000000000000000000000000000000000000000000000000000******************************FIFO
O009M106727230010 A020000000000010260618    0000000010000000000001000000001C0030006075     TOGNO GIUSEPPE      10435       0100000000003410NOBLESSE GMEL QCK MB          000010350000015252000000000        00000CSM              2022110820221110000000000 0080010635     000020221108               000000000000 00000000091015717 STD10D            TOGNO GIUSEPPE                                    VIA LANFRANCHI, 13                 GRAVELLONA TOCE                    IT VB28883C00000000000000000000000000000000000000000000000000000000000000000******************************FIFO
O009M106727230011 A020000000000010260619    0000000010000000000001000000001C0030006075     TOGNO GIUSEPPE      10435       0100000000003410NOBLESSE GMEL GAT MB          000010270000013640000000000        00000CSM              2022110820221110000000000 0080010635     000020221108               000000000000 00000000091015727 STD10D            TOGNO GIUSEPPE                                    VIA LANFRANCHI, 13                 GRAVELLONA TOCE                    IT VB28883C00000000000000000000000000000000000000000000000000000000000000000******************************FIFO
O009M106727230012 A020000000000010260619    0000000010000000000001000000001C0030006075     TOGNO GIUSEPPE      10435       0100000000003410NOBLESSE GMEL GAT MB          000010270000013640000000000        00000CSM              2022110820221110000000000 0080010635     000020221108               000000000000 00000000091015738 STD10D            TOGNO GIUSEPPE                                    VIA LANFRANCHI, 13                 GRAVELLONA TOCE                    IT VB28883C00000000000000000000000000000000000000000000000000000000000000000******************************FIFO
