T02654810361     B203739    20211215715655                             00000000202112170087587         8001120998538COOP ALLEANZA 3.0 IPER.MONTEDORO GASTR.           V. F. DI STAMARE 119 MONTEDORO                    34015     MUGGIA                                            TS  COOP ALLEANZA 3.0 IPER.MONTEDORO GASTR.           V. F. DI STAMARE 119 MONTEDORO                    34015     MUGGIA                                            TS  00010460000010460000000100000000000   0000000000CA     261          20211215      ISB21203739         ITGRANDI SALUMIFICI ITALIANI-BOLOGNA                INTERPORTO - BLOCCO 10.4                          40010     BENTIVOGLIO                                       BO  000017702HRV4+9W034
R02654810361     B203739    202112153800483102586054943415                MORT.BOLOGNA IGP CM GIGANTE KG.100      98004225934152000068134802   20220110000001000104600V
T02654810361     F160637    20211215756030                             00000000202112170041656                      ACIL SRL- SUPERM. KANGURO                         VIA GREGORIO XVI  LOC. MUSSOI                     32100     BELLUNO                                           BL  ACIL SRL- SUPERM. KANGURO                         VIA GREGORIO XVI  LOC. MUSSOI                     32100     BELLUNO                                           BL  00005919000005919000004400000000000   0000000000CA     261          20211215      ISF21160637         ITGRANDI SALUMIFICI ITALIANI-BOLOGNA                INTERPORTO - BLOCCO 10.4                          40010     BENTIVOGLIO                                       BO  00001981046V3+G2205
R02654810361     F160637    202112151800357401370237670499                HOT DOG CON SPECK SENFTER GR.250        08003013904992000000190322   20220319000001000003750F
R02654810361     F160637    202112151800357401370424611101                PANCETTA AFFUM.SENFTER 1/2 SV.          98003013011013000031133404   20220330000002000008930V
R02654810361     F160637    202112151800357401370237672259                WURSTEL SENFTER GR.100 IL CLASSICO      08003013922590000000310322   20220331000001000003000F
R02654810361     F160637    202112151800357401370237672260                WURSTEL SENFTER GR.250 IL CLASSICO      08003013922606000000290322   20220329000001000003750F
R02654810361     F160637    202112151800357401370237673035                AFFUMELLI 2 PZ 125GR AROMAPACK          08004225930359000000110222   20220211000001000001000F
R02654810361     F160637    202112151800357401370237673165                WUERSTEL SERVELADE 200 GR SV            08003013931653000000280222   20220228000001000002400F
R02654810361     F160637    202112151800357401367753084436                PR.COTTO LIBERAMENTE GR.110 CM          08004225944363000002149004   20220115000007000006160F
R02654810361     F160637    202112151800357401370237674436                PR.COTTO LIBERAMENTE GR.110 CM          08004225944363000002149004   20220115000003000002640F
R02654810361     F160637    202112151800357401370237674440                MORTADELLA LIBERAMENTE GR.110 CM        08004225944400000073149127   20220120000010000008800F
R02654810361     F160637    202112151800357401367753084477                WUERSTEL MERANO 180 GR SV               08003013944776000000220222   20220222000001000002160F
R02654810361     F160637    202112151800357401367753084551                SPECK ALTO ADIGE IGP SENFTER 100G       08003013945513000013134302   20220222000011000008800F
R02654810361     F160637    202112151800357401370237675625                TENERONI CON VITELLO GR.150 CM          08004225956250000012134109   20220205000001000001800F
R02654810361     F160637    202112151800357401370237675630                TENERONE DI P.COTTO                     08004225956304000012134301   20220207000001000001800F
R02654810361     F160637    202112151800357401370237675631                TENERONI PC AL PARMIGIANO GR.150        08004225956311000012133704   20220201000001000001800F
R02654810361     F160637    202112151800357401370237675916                SPECK CUBETTI SENFTER GR.100            08004225959169000022133423   20220310000002000002400F
T02654810361     F160638    20211215756032                             00000000202112160100529                      ACIL SRL - SUPERM. KANGURO                        VIA 27 APRILE 1945  18/A                          32021     AGORDO                                            BL  ACIL SRL - SUPERM. KANGURO                        VIA 27 APRILE 1945  18/A                          32021     AGORDO                                            BL  00007641000007641000003200000000000   0000000000CA     261          20211215      ISF21160638         ITGRANDI SALUMIFICI ITALIANI-BOLOGNA                INTERPORTO - BLOCCO 10.4                          40010     BENTIVOGLIO                                       BO  00001990772MP+86205
R02654810361     F160638    202112151800357401370237670483                HOT DOG SENFTER GR.250                  08003013904831000000020422   20220402000001000003750F
R02654810361     F160638    202112151800357401370424611101                PANCETTA AFFUM.SENFTER 1/2 SV.          98003013011013000031133404   20220330000003000012450V
R02654810361     F160638    202112151800357401370237672259                WURSTEL SENFTER GR.100 IL CLASSICO      08003013922590000000310322   20220331000001000003000F
R02654810361     F160638    202112151800357401370237672260                WURSTEL SENFTER GR.250 IL CLASSICO      08003013922606000000290322   20220329000001000003750F
R02654810361     F160638    202112151800357401368877803061                LYONER SENFTER                          98003013030618000000200222   20220220000001000004850V
R02654810361     F160638    202112151800357401368877803081                PASTETE PRIMAVERA SENFTER               98003013030816000000200222   20220220000001000003320V
R02654810361     F160638    202112151800357401368877803083                PASTETE OLIVE SENFTER                   98003013030830000000230122   20220123000001000003350V
R02654810361     F160638    202112151800357401370237673164                WUERSTEL VIENNA 200 GR SV               08003013931646000000160322   20220316000002000004800F
R02654810361     F160638    202112151800357401370237673165                WUERSTEL SERVELADE 200 GR SV            08003013931653000000280222   20220228000003000007200F
R02654810361     F160638    202112151800357401368877803500                FILET.DI PORCH.SENFTER 1/2 SV           98003013035002000014148066   20220302000002000012440V
R02654810361     F160638    202112151800357401367753084477                WUERSTEL MERANO 180 GR SV               08003013944776000000220222   20220222000002000004320F
R02654810361     F160638    202112151800357401367753084551                SPECK ALTO ADIGE IGP SENFTER 100G       08003013945513000013134302   20220222000010000008000F
R02654810361     F160638    202112151800357401367753084711                PROSCIUTTO COTTO PRAGA SENFTER 125G     08003013947111000073150024   20220126000001000001000F
R02654810361     F160638    202112151800357401370237675630                TENERONE DI P.COTTO                     08004225956304000012134301   20220207000001000001800F
R02654810361     F160638    202112151800357401367753085800                GIRAVOLTE BOCCONCINI SPECK E ASIAGO     08004225958001000000013401   20220127000001000001020F
R02654810361     F160638    202112151800357401367753085837                TENERONI LA MERENDA GR.170              080042259583770068L2143600   20220115000001000001360F
T02654810361     B203740    20211215756042                             00000000202112160044893         098335       WALBER SPA - PV AGORDO                            VIA 27 APRILE 1945                                32021     AGORDO                                            BL  WALBER SPA - PV AGORDO                            VIA 27 APRILE 1945                                32021     AGORDO                                            BL  00000820000000820000000200000000000   0000000000CA     261          20211215      ISB21203740         ITGRANDI SALUMIFICI ITALIANI-BOLOGNA                INTERPORTO - BLOCCO 10.4                          40010     BENTIVOGLIO                                       BO  00001990672MM+CW205
R02654810361     B203740    202112151800357401370424611101                PANCETTA AFFUM.SENFTER 1/2 SV.          98003013011013000031133404   20220330000002000008200V
T02654810361     F160639    20211215756091                             00000000202112160068628                      ACIL SRL.                                         LOC. GHIRLO, 30                                   32020     CENCENIGHE AGORDINO                               BL  ACIL SRL.                                         LOC. GHIRLO, 30                                   32020     CENCENIGHE AGORDINO                               BL  00006656000006656000003200000000000   0000000000CA     261          20211215      ISF21160639         ITGRANDI SALUMIFICI ITALIANI-BOLOGNA                INTERPORTO - BLOCCO 10.4                          40010     BENTIVOGLIO                                       BO  0000190298XRG+FV205
R02654810361     F160639    202112151800357401370237670483                HOT DOG SENFTER GR.250                  08003013904831000000020422   20220402000001000003750F
R02654810361     F160639    202112151800357401370237670499                HOT DOG CON SPECK SENFTER GR.250        08003013904992000000190322   20220319000001000003750F
R02654810361     F160639    202112151800357401370424611101                PANCETTA AFFUM.SENFTER 1/2 SV.          98003013011013000031133404   20220330000001000003970V
R02654810361     F160639    202112151800357401368877801110                PANCETTA STUF.SENFTER 1/2 SV            98003013011105000014148076   20220303000002000012660V
R02654810361     F160639    202112151800357401370237672040                WUERSTEL SENFTER PS G.250 -15PZ-        08003013920404000000300322   20220330000001000003750F
R02654810361     F160639    202112151800357401370237672259                WURSTEL SENFTER GR.100 IL CLASSICO      08003013922590000000310322   20220331000001000003000F
R02654810361     F160639    202112151800357401370237672260                WURSTEL SENFTER GR.250 IL CLASSICO      08003013922606000000290322   20220329000001000003750F
R02654810361     F160639    202112151800357401368877803061                LYONER SENFTER                          98003013030618000000200222   20220220000001000004970V
R02654810361     F160639    202112151800357401370237673165                WUERSTEL SERVELADE 200 GR SV            08003013931653000000280222   20220228000001000002400F
R02654810361     F160639    202112151800357401367753084436                PR.COTTO LIBERAMENTE GR.110 CM          08004225944363000002149004   20220115000006000005280F
R02654810361     F160639    202112151800357401370237674440                MORTADELLA LIBERAMENTE GR.110 CM        08004225944400000073149127   20220120000004000003520F
R02654810361     F160639    202112151800357401367753084477                WUERSTEL MERANO 180 GR SV               08003013944776000000220222   20220222000001000002160F
R02654810361     F160639    202112151800357401367753084551                SPECK ALTO ADIGE IGP SENFTER 100G       08003013945513000013134302   20220222000006000004800F
R02654810361     F160639    202112151800357401370237675595                POLPETTE TENERONI GR.200                0800422595595644132          20220113000001000001600F
R02654810361     F160639    202112151800357401370237675610                TENERONI BABY MINI ORIG.GR.150-12PZ     08004225956106000087134402   20220131000001000001800F
R02654810361     F160639    202112151800357401370237675625                TENERONI CON VITELLO GR.150 CM          08004225956250000012134109   20220205000001000001800F
R02654810361     F160639    202112151800357401370237675630                TENERONE DI P.COTTO                     08004225956304000012134301   20220207000001000001800F
R02654810361     F160639    202112151800357401370237675631                TENERONI PC AL PARMIGIANO GR.150        08004225956311000012133704   20220201000001000001800F
T02654810361     F160640    20211215756356                             00000000202112160090644                      ACIL SRL-C.C. SEDICO INS. KANGURO                 VIA FELTRE 68                                     32036     SEDICO                                            BL  ACIL SRL-C.C. SEDICO INS. KANGURO                 VIA FELTRE 68                                     32036     SEDICO                                            BL  00005313000005313000003600000000000   0000000000CA     261          20211215      ISF21160640         ITGRANDI SALUMIFICI ITALIANI-BOLOGNA                INTERPORTO - BLOCCO 10.4                          40010     BENTIVOGLIO                                       BO  000019789433R+HP205
R02654810361     F160640    202112151800357401370237670483                HOT DOG SENFTER GR.250                  08003013904831000000020422   20220402000001000003750F
R02654810361     F160640    202112151800357401368877801101                PANCETTA AFFUM.SENFTER 1/2 SV.          98003013011013000031133404   20220330000001000003950V
R02654810361     F160640    202112151800357401370237673164                WUERSTEL VIENNA 200 GR SV               08003013931646000000160322   20220316000001000002400F
R02654810361     F160640    202112151800357401370237673165                WUERSTEL SERVELADE 200 GR SV            08003013931653000000280222   20220228000001000002400F
R02654810361     F160640    202112151800357401368877803500                FILET.DI PORCH.SENFTER 1/2 SV           98003013035002000014148066   20220302000001000006710V
R02654810361     F160640    202112151800357401370237674436                PR.COTTO LIBERAMENTE GR.110 CM          08004225944363000002149004   20220115000005000004400F
R02654810361     F160640    202112151800357401370237674440                MORTADELLA LIBERAMENTE GR.110 CM        08004225944400000073149127   20220120000005000004400F
R02654810361     F160640    202112151800357401367753084477                WUERSTEL MERANO 180 GR SV               08003013944776000000220222   20220222000001000002160F
R02654810361     F160640    202112151800357401367753084551                SPECK ALTO ADIGE IGP SENFTER 100G       08003013945513000013134302   20220222000010000008000F
R02654810361     F160640    202112151800357401367753084781                PR.COTTO AFF.GRANTENERONE GR.110        08004225947814000002149063   20220118000001000000880F
R02654810361     F160640    202112151800357401370237675595                POLPETTE TENERONI GR.200                0800422595595644132          20220113000001000001600F
R02654810361     F160640    202112151800357401367753085600                TENERONE IL BURGER GR.180               08004225956007000012133707   20220201000001000001440F
R02654810361     F160640    202112151800357401370237675625                TENERONI CON VITELLO GR.150 CM          08004225956250000012134109   20220205000001000001800F
R02654810361     F160640    202112151800357401370237675630                TENERONE DI P.COTTO                     08004225956304000012134301   20220207000002000003600F
R02654810361     F160640    202112151800357401370237675631                TENERONI PC AL PARMIGIANO GR.150        08004225956311000012133704   20220201000001000001800F
R02654810361     F160640    202112151800357401370237675636                TENERONE MOZZARELLA DI P.COTTO          08004225956366000012134402   20220208000001000001800F
R02654810361     F160640    202112151800357401367753085821                GIRAVOLTE MOZZARELLA E COTTO GR.170     08004225958216000000013401   20220127000001000001020F
R02654810361     F160640    202112151800357401367753085822                GIRAVOLTE 3 FORMAGGI GR.170             08004225958223000000013401   20220127000001000001020F
T02654810361     F160641    20211215756399                             00000000202112160086601                      ACIL SRL- SUPERM. KANGURO                         VIA FELTRE 26                                     32035     SANTA GIUSTINA                                    BL  ACIL SRL- SUPERM. KANGURO                         VIA FELTRE 26                                     32035     SANTA GIUSTINA                                    BL  00001875000001875000000900000000000   0000000000CA     261          20211215      ISF21160641         ITGRANDI SALUMIFICI ITALIANI-BOLOGNA                INTERPORTO - BLOCCO 10.4                          40010     BENTIVOGLIO                                       BO  00001975232JQ+Q9205
R02654810361     F160641    202112151800357401370237671311                MORTADELLA ECOPACK GR.120 CM            08004225913116000073148025   20220114000001000001200F
R02654810361     F160641    202112151800357401370237672040                WUERSTEL SENFTER PS G.250 -15PZ-        08003013920404000000300322   20220330000001000003750F
R02654810361     F160641    202112151800357401370237672260                WURSTEL SENFTER GR.250 IL CLASSICO      08003013922606000000290322   20220329000002000007500F
R02654810361     F160641    202112151800357401370237673164                WUERSTEL VIENNA 200 GR SV               08003013931646000000160322   20220316000001000002400F
R02654810361     F160641    202112151800357401370237674436                PR.COTTO LIBERAMENTE GR.110 CM          08004225944363000002149004   20220115000001000000880F
R02654810361     F160641    202112151800357401367753084551                SPECK ALTO ADIGE IGP SENFTER 100G       08003013945513000013134302   20220222000001000000800F
R02654810361     F160641    202112151800357401367753085821                GIRAVOLTE MOZZARELLA E COTTO GR.170     08004225958216000000013401   20220127000001000001020F
R02654810361     F160641    202112151800357401370237675916                SPECK CUBETTI SENFTER GR.100            08004225959169000022133423   20220310000001000001200F
T02654810361     F160642    20211215756671                             00000000202112160068643                      ACIL SRL.                                         VIA FENADORA,29                                   32030     FONZASO                                           BL  ACIL SRL.                                         VIA FENADORA,29                                   32030     FONZASO                                           BL  00003883000003883000001500000000000   0000000000CA     261          20211215      ISF21160642         ITGRANDI SALUMIFICI ITALIANI-BOLOGNA                INTERPORTO - BLOCCO 10.4                          40010     BENTIVOGLIO                                       BO  0000186622R34+4H205
R02654810361     F160642    202112151800357401370237670483                HOT DOG SENFTER GR.250                  08003013904831000000020422   20220402000001000003750F
R02654810361     F160642    202112151800357401368877801101                PANCETTA AFFUM.SENFTER 1/2 SV.          98003013011013000031133404   20220330000003000011580V
R02654810361     F160642    202112151800357401368877801110                PANCETTA STUF.SENFTER 1/2 SV            98003013011105000014148076   20220303000001000005360V
R02654810361     F160642    202112151800357401370237672040                WUERSTEL SENFTER PS G.250 -15PZ-        08003013920404000000300322   20220330000001000003750F
R02654810361     F160642    202112151800357401370237672260                WURSTEL SENFTER GR.250 IL CLASSICO      08003013922606000000290322   20220329000001000003750F
R02654810361     F160642    202112151800357401370237673165                WUERSTEL SERVELADE 200 GR SV            08003013931653000000280222   20220228000001000002400F
R02654810361     F160642    202112151800357401370237674436                PR.COTTO LIBERAMENTE GR.110 CM          08004225944363000002149004   20220115000001000000880F
R02654810361     F160642    202112151800357401367753084477                WUERSTEL MERANO 180 GR SV               08003013944776000000220222   20220222000001000002160F
R02654810361     F160642    202112151800357401367753084551                SPECK ALTO ADIGE IGP SENFTER 100G       08003013945513000013134302   20220222000001000000800F
R02654810361     F160642    202112151800357401367753084781                PR.COTTO AFF.GRANTENERONE GR.110        08004225947814000002149063   20220118000002000001760F
R02654810361     F160642    202112151800357401367753085600                TENERONE IL BURGER GR.180               08004225956007000012133707   20220201000001000001440F
R02654810361     F160642    202112151800357401370237675916                SPECK CUBETTI SENFTER GR.100            08004225959169000022133423   20220310000001000001200F
T02654810361     F160643    20211215756765                             00000000202112160093233                      ACIL SRL                                          LOC. GUS    MEL                                   32026     BORGO VALBELLUNA                                  BL  ACIL SRL                                          LOC. GUS    MEL                                   32026     BORGO VALBELLUNA                                  BL  00003194000003194000001300000000000   0000000000CA     261          20211215      ISF21160643         ITGRANDI SALUMIFICI ITALIANI-BOLOGNA                INTERPORTO - BLOCCO 10.4                          40010     BENTIVOGLIO                                       BO  000019757334F+MR205
R02654810361     F160643    202112151800357401370237670499                HOT DOG CON SPECK SENFTER GR.250        08003013904992000000190322   20220319000001000003750F
R02654810361     F160643    202112151800357401370424611101                PANCETTA AFFUM.SENFTER 1/2 SV.          98003013011013000031133404   20220330000002000009130V
R02654810361     F160643    202112151800357401370237672040                WUERSTEL SENFTER PS G.250 -15PZ-        08003013920404000000300322   20220330000001000003750F
R02654810361     F160643    202112151800357401370237672259                WURSTEL SENFTER GR.100 IL CLASSICO      08003013922590000000310322   20220331000001000003000F
R02654810361     F160643    202112151800357401370237672260                WURSTEL SENFTER GR.250 IL CLASSICO      08003013922606000000290322   20220329000001000003750F
R02654810361     F160643    202112151800357401370237673165                WUERSTEL SERVELADE 200 GR SV            08003013931653000000280222   20220228000001000002400F
R02654810361     F160643    202112151800357401370237674436                PR.COTTO LIBERAMENTE GR.110 CM          08004225944363000002149004   20220115000001000000880F
R02654810361     F160643    202112151800357401370237674440                MORTADELLA LIBERAMENTE GR.110 CM        08004225944400000073149127   20220120000001000000880F
R02654810361     F160643    202112151800357401367753084441                TACCHINO ARR.LIBERAMENTE GR.110 CM      08004225944417000073149034   20220116000001000000880F
R02654810361     F160643    202112151800357401367753084781                PR.COTTO AFF.GRANTENERONE GR.110        08004225947814000002149063   20220118000001000000880F
R02654810361     F160643    202112151800357401367753085600                TENERONE IL BURGER GR.180               08004225956007000012133707   20220201000001000001440F
R02654810361     F160643    202112151800357401370237675916                SPECK CUBETTI SENFTER GR.100            08004225959169000022133423   20220310000001000001200F
T02654810361     B203741    20211215757421                             00000000202112210081344                      TESSARO S.P.A.                                    VIA FENADORA 57  Z.IND. ARTEN                     32030     FONZASO                                           BL  TESSARO S.P.A.                                    VIA FENADORA 57  Z.IND. ARTEN                     32030     FONZASO                                           BL  00027268000027268000002000000000000   0000000000CA     261          20211215      ISB21203741         ITGRANDI SALUMIFICI ITALIANI-BOLOGNA                INTERPORTO - BLOCCO 10.4                          40010     BENTIVOGLIO                                       BO  0000379002R36+4C205
R02654810361     B203741    202112151800357401370424611020                SPECK ALPE 1/1                          98003013010207000031134403   20220223000020000272680V
T02654810361     B203742    20211215757822                             00000000202112170064661         7528         LA COOPERATIVA DI CORTINA SCARL                   C.SO ITALIA 40                                    32043     CORTINA D'AMPEZZO                                 BL  LA COOPERATIVA DI CORTINA SCARL                   C.SO ITALIA 40                                    32043     CORTINA D'AMPEZZO                                 BL  00013057000013057000005200000000000   0000000000CA     261          20211215      ISB21203742         ITGRANDI SALUMIFICI ITALIANI-BOLOGNA                INTERPORTO - BLOCCO 10.4                          40010     BENTIVOGLIO                                       BO  000019978G4PQ+QC205
R02654810361     B203742    202112153800357471765361081074                SPECK A.A.IGP 1/4 SV                    98003013010740000012134305   20220508000010000047150V
R02654810361     B203742    202112153800357471765361081103                PANCETTA AFFUMICATA 300G SV             98003013011037000012134308   20220508000004000012650V
R02654810361     B203742    202112151800357401370237672039                WUERSTEL SENFTER PS 100G -30PZ-         08003013920398000000230322   20220323000001000003000F
R02654810361     B203742    202112151800357401370237672040                WUERSTEL SENFTER PS G.250 -15PZ-        08003013920404000000300322   20220330000001000003750F
R02654810361     B203742    202112151800357401370237672260                WURSTEL SENFTER GR.250 IL CLASSICO      08003013922606000000290322   20220329000002000007500F
R02654810361     B203742    202112151800357401370237672935                KNOEDELWURST GASSER 300 GR. SV          08005630929358200222         20220220000008000014400F
R02654810361     B203742    202112151800357401370237673035                AFFUMELLI 2 PZ 125GR AROMAPACK          08004225930359000000110222   20220211000020000020000F
R02654810361     B203742    202112151800357401368877803061                LYONER SENFTER                          98003013030618000000200222   20220220000001000004790V
R02654810361     B203742    202112151800357401368877803065                LYONER AL PEPERONE SENFTER              98003013030656000000200222   20220220000001000004880V
R02654810361     B203742    202112151800357401370237673164                WUERSTEL VIENNA 200 GR SV               08003013931646000000160322   20220316000003000007200F
R02654810361     B203742    202112153800357471772142964880                SALAME GRANMAGRO CASA MODENA            98004225948807000023133702   20220216000001000005250V
T02654810361     F160644    20211215757829                             00000000202112170090645                      ACIL SRL.                                         VIA FRANCHETTI 1                                  32043     CORTINA D'AMPEZZO                                 BL  ACIL SRL.                                         VIA FRANCHETTI 1                                  32043     CORTINA D'AMPEZZO                                 BL  00002162000002162000000800000000000   0000000000CA     261          20211215      ISF21160644         ITGRANDI SALUMIFICI ITALIANI-BOLOGNA                INTERPORTO - BLOCCO 10.4                          40010     BENTIVOGLIO                                       BO  000019979G4PR+V6205
R02654810361     F160644    202112151800357401368877801101                PANCETTA AFFUM.SENFTER 1/2 SV.          98003013011013000031133404   20220330000002000008100V
R02654810361     F160644    202112151800357401370237672259                WURSTEL SENFTER GR.100 IL CLASSICO      08003013922590000000310322   20220331000001000003000F
R02654810361     F160644    202112151800357401370237673035                AFFUMELLI 2 PZ 125GR AROMAPACK          08004225930359000000110222   20220211000002000002000F
R02654810361     F160644    202112151800357401368877803061                LYONER SENFTER                          98003013030618000000200222   20220220000001000004920V
R02654810361     F160644    202112151800357401370237673164                WUERSTEL VIENNA 200 GR SV               08003013931646000000160322   20220316000001000002400F
R02654810361     F160644    202112151800357401370237675916                SPECK CUBETTI SENFTER GR.100            08004225959169000022133423   20220310000001000001200F
T02654810361     F160645    20211215758236                             00000000202112170006064                      MACELLERIA BERGAMO S.N.C. DI BERGAMO E NOBILE     SESTRIERE CANNAREGIO 1837/C                       30121     VENEZIA                                           VE  MACELLERIA BERGAMO S.N.C. DI BERGAMO E NOBILE     SESTRIERE CANNAREGIO 1837/C                       30121     VENEZIA                                           VE  00002868000002868000000300000000000   0000000000CA     261          20211215      ISF21160645         ITGRANDI SALUMIFICI ITALIANI-BOLOGNA                INTERPORTO - BLOCCO 10.4                          40010     BENTIVOGLIO                                       BO  000016593C8VG+JP585
R02654810361     F160645    202112151800357401368877801508                SPECK GRAN RESA 1/1 SV X NT             98003013015080000012134310   20220508000001000010450V
R02654810361     F160645    202112151800357401370424615018                PROS.PR.DIS.SEL.22M CAVAZZUTI           98004225950183001512148040   20220704000002000018230V
T02654810361     F160646    20211215758241                             00000000202112170033020                      ONGARATO FABIO  BAR DA LELE                       SES. SANTA CROCE 183                              30135     VENEZIA                                           VE  ONGARATO FABIO  BAR DA LELE                       SES. SANTA CROCE 183                              30135     VENEZIA                                           VE  00004579000004579000001000000000000   0000000000CA     261          20211215      ISF21160646         ITGRANDI SALUMIFICI ITALIANI-BOLOGNA                INTERPORTO - BLOCCO 10.4                          40010     BENTIVOGLIO                                       BO  000016559C8QC+2H585
R02654810361     F160646    202112151800357401368877803530                MANZO COTTO 1/2 SV                      98003013035309000014147088   20220224000010000045790V
T02654810361     F160647    20211215758262                             00000000202112170076824                      VIANELLO SIMONE                                   V. C. MEZZACAPO 30/A MARGHERA                     30175     VENEZIA                                           VE  VIANELLO SIMONE                                   V. C. MEZZACAPO 30/A MARGHERA                     30175     VENEZIA                                           VE  00005109000005109000000600000000000   0000000000CA     261          20211215      ISF21160647         ITGRANDI SALUMIFICI ITALIANI-BOLOGNA                INTERPORTO - BLOCCO 10.4                          40010     BENTIVOGLIO                                       BO  000016711F6GH+WV585
R02654810361     F160647    202112151800357401370237670448                SPECK AA IGP GR.80 SF                   08003013904480000013134001   20220219000001000000560F
R02654810361     F160647    202112151800357401370424611020                SPECK ALPE 1/1                          98003013010207000031134403   20220223000001000013450V
R02654810361     F160647    202112151800357401370424615018                PROS.PR.DIS.SEL.22M CAVAZZUTI           98004225950183001512148040   20220704000004000037080V
T02654810361     F160648    20211215758431                             00000000202112230107823                      FABBRO DINO & C. SNC DI FABBRO D.E A.  MARKET FABBP.ZZA P.F. CALVI 70-71                            32040     LORENZAGO DI CADORE                               BL  FABBRO DINO & C. SNC DI FABBRO D.E A.  MARKET FABBP.ZZA P.F. CALVI 70-71                            32040     LORENZAGO DI CADORE                               BL  00001318000001318000000300000000000   0000000000CA     261          20211215      ISF21160648         ITGRANDI SALUMIFICI ITALIANI-BOLOGNA                INTERPORTO - BLOCCO 10.4                          40010     BENTIVOGLIO                                       BO  000019964FFJ5+4C205
R02654810361     F160648    202112151800357401368877801509                SPECK GRAN RESA 1/2 SV X NT             98003013015097000012134407   20220509000001000005910V
R02654810361     F160648    202112151800357401370237671565                BURRO PARMAREGGIO GR.200 X8             080107219793890041L21442     20220316000001000001600F
R02654810361     F160648    202112151800357401368877801629                PARM.REGG.30M 1/8 -1PZ                  980107219796650075L21413     20220509000001000005670V
T02654810361     B203743    20211215677144                             00000000202112160078880                      CARLO TERLICHER & C. S.A.S.                       VIA SCRUTTO 15   FRAZ. SCRUTTO                    33040     SAN LEONARDO                                      UD  CARLO TERLICHER & C. S.A.S.                       VIA SCRUTTO 15   FRAZ. SCRUTTO                    33040     SAN LEONARDO                                      UD  00003707000003707000000300000000000   0000000000CA     261          20211215      ISB21203743         ITGRANDI SALUMIFICI ITALIANI-BOLOGNA                INTERPORTO - BLOCCO 10.4                          40010     BENTIVOGLIO                                       BO  0000203514GCC+FJ149
R02654810361     B203743    202112151800357401367752780024                PR.COTTO AQ GRAN TENERONE -1PZ-         98004225900249000019148018   20220508000001000007670V
R02654810361     B203743    202112151800357401370237433407                MORT.DUE TORRI PIS.NT CIL.K.30 SV/2     98004225934077000051133715   20220313000002000029400V
T02654810361     B203744    20211215677146                             00000000202112160078880                      CARLO TERLICHER & C. S.A.S.                       VIA SCRUTTO 15   FRAZ. SCRUTTO                    33040     SAN LEONARDO                                      UD  CARLO TERLICHER & C. S.A.S.                       VIA SCRUTTO 15   FRAZ. SCRUTTO                    33040     SAN LEONARDO                                      UD  00003686000003686000000300000000000   0000000000CA     261          20211215      ISB21203744         ITGRANDI SALUMIFICI ITALIANI-BOLOGNA                INTERPORTO - BLOCCO 10.4                          40010     BENTIVOGLIO                                       BO  0000203514GCC+FJ149
R02654810361     B203744    202112151800357401367752780024                PR.COTTO AQ GRAN TENERONE -1PZ-         98004225900249000019148018   20220508000001000007610V
R02654810361     B203744    202112151800357401370237433407                MORT.DUE TORRI PIS.NT CIL.K.30 SV/2     98004225934077000051133715   20220313000002000029250V
T02654810361     F160649    20211215739849                             00000000202112170051102                      DORNI CORRADO ALIMENTARI                          VIA DEL CARSO 29                                  34170     GORIZIA                                           GO  DORNI CORRADO ALIMENTARI                          VIA DEL CARSO 29                                  34170     GORIZIA                                           GO  00002232000002232000000300000000000   0000000000CA     261          20211215      ISF21160649         ITGRANDI SALUMIFICI ITALIANI-BOLOGNA                INTERPORTO - BLOCCO 10.4                          40010     BENTIVOGLIO                                       BO  000018206WJH4+QF586
R02654810361     F160649    202112151800357401370477562040                WUERSTEL SENFTER PS G.250 -15PZ-        08003013920404000000300322   20220330000001000003750F
R02654810361     F160649    202112151800357401370237433623                PR.COTTO PRAGA SENFTER 1/1 SV           98003013036238000014150047   20220314000002000018570V
T02654810361     B203745    20211215744993    210294647_000            20211209202112160089427         4254         GEMEAZ ELIOR SPA-CEMENTIZILLO SPA                 VIA PRADIS,2                                      33092     FANNA                                             PN  GEMEAZ ELIOR SPA-CEMENTIZILLO SPA                 VIA PRADIS,2                                      33092     FANNA                                             PN  00000600000000600000000100000000000   0000000000CA     261          20211215      ISB21203745         ITGRANDI SALUMIFICI ITALIANI-BOLOGNA                INTERPORTO - BLOCCO 10.4                          40010     BENTIVOGLIO                                       BO  0000198665PGR+VW586
R02654810361     B203745    202112151800357401370477565742                COTECHINO COLLEMILIA GR.500             08004225957424000048134111   20231222000001000006000F
T02654810361     B203746    20211215750470    017216122104             20211213202112160054107         4333844000407LIDL ITALIA SRL-DEP. SESTO AL REGHENA             VIA CORNIA LOC. BANDUZZO                          33079     SESTO AL REGHENA                                  PN  LIDL ITALIA SRL-DEP. SESTO AL REGHENA             VIA CORNIA LOC. BANDUZZO                          33079     SESTO AL REGHENA                                  PN  00151128000151128000051600000000000   0000000000CA     261          20211215      ISB21203746         ITGRANDI SALUMIFICI ITALIANI-BOLOGNA                INTERPORTO - BLOCCO 10.4                          40010     BENTIVOGLIO                                       BO  000017487VQ6J+VG189
R02654810361     B203746    202112151800357401371929510892                DAL SALUMIERE MORT.GR.150 G.SCH.        08004225908921000073149102   20220124000144000345600F
R02654810361     B203746    202112151800357401370379171995                DAL SALUMIERE SPECK MONTAGNA G120IT     08003013919958000058134302   20220212000228000355680F
R02654810361     B203746    202112153800563032866966322202                SALUMEO WUERSTEL MISTO 250G             08003013922026000000240322   20220324000104000390000F
R02654810361     B203746    202112153800930542035447965435                SALUMEO MORTAD.GR.700 SALVAFRESCH.      08009305954355000052133626   20220401000040000420000F
T02654810361     B203747    20211215753788                             00000000202112160077321                      GODINA SRL                                        VIA DEI CAPPUCCINI 1                              34170     GORIZIA                                           GO  GODINA SRL                                        VIA DEI CAPPUCCINI 1                              34170     GORIZIA                                           GO  00001667000001667000000400000000000   0000000000CA     261          20211215      ISB21203747         ITGRANDI SALUMIFICI ITALIANI-BOLOGNA                INTERPORTO - BLOCCO 10.4                          40010     BENTIVOGLIO                                       BO  000018222WJRF+5M586
R02654810361     B203747    202112151800357401370237432002                SPECK COTTO 1/2                         98003013020022000014149032   20220307000002000014350V
R02654810361     B203747    202112151800357401370477564711                PROSCIUTTO COTTO PRAGA SENFTER 125G     08003013947111000073150024   20220126000001000001000F
R02654810361     B203747    202112151800357401370477565987                PANC.CUBETTI DOLCE GR.110 CM            08004225959879000022133312   20220309000001000001320F
T02654810361     F160650    20211215755193                             00000000202112150096243                      BL S.N.C. DI BRADASCHIA S.& C.                    P.ZZA VENEZIA 28                                  34075     SAN CANZIAN D'ISONZO                              GO  BL S.N.C. DI BRADASCHIA S.& C.                    P.ZZA VENEZIA 28                                  34075     SAN CANZIAN D'ISONZO                              GO  00006037000006037000000600000000000   0000000000CA     261          20211215      ISF21160650         ITGRANDI SALUMIFICI ITALIANI-BOLOGNA                INTERPORTO - BLOCCO 10.4                          40010     BENTIVOGLIO                                       BO  000018013QFW7+WW586
R02654810361     F160650    202112151800357401367752781509                SPECK GRAN RESA 1/2 SV X NT             98003013015097000012134407   20220509000002000011510V
R02654810361     F160650    202112151800357401370237433258                SOPPRESSA VENETA C.M.                   98004225932585000057134001   20220306000001000004540V
R02654810361     F160650    202112151800357401370237435814                PR.CRUDO S/O 14M CASA MODENA            98004225958141003512145040   20220616000003000044320V
T02654810361     B203748    20211215755581                             00000000202112170062734         A12912       BASSO ANTONIO  ENI CAFE'                          V.LE TREVISO 38  VALLENONCELLO                    33170     PORDENONE                                         PN  BASSO ANTONIO  ENI CAFE'                          V.LE TREVISO 38  VALLENONCELLO                    33170     PORDENONE                                         PN  00001735000001735000001200000000000   0000000000CA     261          20211215      ISB21203748         ITGRANDI SALUMIFICI ITALIANI-BOLOGNA                INTERPORTO - BLOCCO 10.4                          40010     BENTIVOGLIO                                       BO  000017539WJPX+JG586
R02654810361     B203748    202112151800357401370477560448                SPECK AA IGP GR.80 SF                   08003013904480000013134001   20220219000001000000560F
R02654810361     B203748    202112151800357401370477561030                SPECK TRANCIO IGP SF GR.390 PF          08003013910306000012133503   20220331000001000003900F
R02654810361     B203748    202112151800357401370477561311                MORTADELLA ECOPACK GR.120 CM            08004225913116000073148025   20220114000001000001200F
R02654810361     B203748    202112151800357401370477561312                SALAME ECOPACK GR.80 CM                 08004225913123000022133013   20220125000001000000800F
R02654810361     B203748    202112151800357401370477561313                PROSC.CRUDO ECOPACK GR.90 CM            08004225913130000037134101   20220205000001000000900F
R02654810361     B203748    202112151800357401370477561693                FORM.SPALMABILE C/PARM.REGG.G130X12     08010721981436000000020222   20220202000001000001560F
R02654810361     B203748    202112151800357401370477563244                CACCIATORE DOP GR.175 AP                08004225932445000023133303   20220217000001000001750F
R02654810361     B203748    202112151800357401370477564441                TACCHINO ARR.LIBERAMENTE GR.110 CM      08004225944417000073149034   20220116000001000000880F
R02654810361     B203748    202112151800357401370477564781                PR.COTTO AFF.GRANTENERONE GR.110        08004225947814000002149063   20220118000001000000880F
R02654810361     B203748    202112151800357401370477565611                TENERONE ORIGINALE GR.150 -6PZ-         08004225956113000012134403   20220208000001000000900F
R02654810361     B203748    202112151800357401370477565871                FETTINE AL PARMIGIANO REGG.GR.150       0801072199682900220522       20220522000001000002700F
R02654810361     B203748    202112151800357401370477565988                PANC.CUBETTI AFFUM.GR.110 CM            08004225959886000022134127   20220317000001000001320F
T02654810361     F160651    20211215757710                             00000000202112170085617                      REVELANT MATTEO   MACELL. REVELANT                VIA DIVISIONE JULIA,  11                          33030     BUJA                                              UD  REVELANT MATTEO   MACELL. REVELANT                VIA DIVISIONE JULIA,  11                          33030     BUJA                                              UD  00002740000002740000000500000000000EUR0000027233CA     261          20211215      ISF21160651         ITGRANDI SALUMIFICI ITALIANI-BOLOGNA                INTERPORTO - BLOCCO 10.4                          40010     BENTIVOGLIO                                       BO  000020399645G+Q5586
R02654810361     F160651    202112151800357401370477560724                GORGONZOLA&MASCARPONE SANTI G.200X8     0802139830158834414005       20220119000001000001600F
R02654810361     F160651    202112151800357401367752781307                GUANCIALE NAZIONALE CAV.KG.1,8 PV       980042259130722109212200     20220320000001000003530V
R02654810361     F160651    202112151800357401367752783163                BRESAOLA P.ANCA 1/2 SV IGP SENFTER      98003013031639821480089      20220303000001000003830V
R02654810361     F160651    202112151800357401370237433501                PORCHETTA MONTAGNA 1/2 SV               98003013035019000014149024   20220306000001000009150V
R02654810361     F160651    202112151800357401370237433622                PR.COTTO PRAGA SENFTER 1/2 SV           98003013036221000014150036   20220313000001000009290V
T02654810361     F160652    20211215757729                             00000000202112170101133                      VENUTI MARCO    PANIFICIO VENUTI                  VIA G. GARIBALDI 7                                33040     PRADAMANO                                         UD  VENUTI MARCO    PANIFICIO VENUTI                  VIA G. GARIBALDI 7                                33040     PRADAMANO                                         UD  00000682000000682000000500000000000EUR0000009581CA     261          20211215      ISF21160652         ITGRANDI SALUMIFICI ITALIANI-BOLOGNA                INTERPORTO - BLOCCO 10.4                          40010     BENTIVOGLIO                                       BO  00002018028M4+QF586
R02654810361     F160652    202112151800357401367752783211                SAL.NOBILE GENTILE LUNGO                98004225932110000023133505   20220301000001000002740V
R02654810361     F160652    202112151800357401370477564711                PROSCIUTTO COTTO PRAGA SENFTER 125G     08003013947111000073150024   20220126000001000001000F
R02654810361     F160652    202112151800357401370477564781                PR.COTTO AFF.GRANTENERONE GR.110        08004225947814000002149063   20220118000002000001760F
R02654810361     F160652    202112151800357401370477565988                PANC.CUBETTI AFFUM.GR.110 CM            08004225959886000022134127   20220317000001000001320F
T02654810361     F160653    20211215757809                             00000000202112170104855                      FORNO ALZETTA S.N.C. DI ALZETTA V.E FASSETTA S.   VIA G. MAZZINI 32                                 33086     MONTEREALE VALTELLINA                             PN  FORNO ALZETTA S.N.C. DI ALZETTA V.E FASSETTA S.   VIA G. MAZZINI 32                                 33086     MONTEREALE VALTELLINA                             PN  00004006000004006000000300000000000EUR0000042592CA     261          20211215      ISF21160653         ITGRANDI SALUMIFICI ITALIANI-BOLOGNA                INTERPORTO - BLOCCO 10.4                          40010     BENTIVOGLIO                                       BO  0000198555M22+Q2586
R02654810361     F160653    202112151800357401367752780024                PR.COTTO AQ GRAN TENERONE -1PZ-         98004225900249000019148018   20220508000001000007440V
R02654810361     F160653    202112151800357401370237433157                PR.COTTO AQ GRAN TENERONE               98004225931571000019147012   20220428000001000016270V
R02654810361     F160653    202112151800357401370237435096                PROSC.PARMA DIS.PRESS.REGIO 20M.CAV     98004225950961000511146051   20220627000001000016350V
T02654810361     F160654    20211215758412                             00000000202112160079843                      MONTICOLO ENRICO                                  VIA V. VENETO 4                                   33050     TORVISCOSA                                        UD  MONTICOLO ENRICO                                  VIA V. VENETO 4                                   33050     TORVISCOSA                                        UD  00000350000000350000000400000000000   0000000000CA     261          20211215      ISF21160654         ITGRANDI SALUMIFICI ITALIANI-BOLOGNA                INTERPORTO - BLOCCO 10.4                          40010     BENTIVOGLIO                                       BO  000018041R7FJ+F6586
R02654810361     F160654    202112151800357401370477561313                PROSC.CRUDO ECOPACK GR.90 CM            08004225913130000037134101   20220205000001000000900F
R02654810361     F160654    202112151800357401370477564551                SPECK ALTO ADIGE IGP SENFTER 100G       08003013945513000013134302   20220222000001000000800F
R02654810361     F160654    202112151800357401370477565611                TENERONE ORIGINALE GR.150 -6PZ-         08004225956113000012134403   20220208000002000001800F
T02654810361     B203749    20211215758430                             00000000202112160078880                      CARLO TERLICHER & C. S.A.S.                       VIA SCRUTTO 15   FRAZ. SCRUTTO                    33040     SAN LEONARDO                                      UD  CARLO TERLICHER & C. S.A.S.                       VIA SCRUTTO 15   FRAZ. SCRUTTO                    33040     SAN LEONARDO                                      UD  00000406000000406000000600000000000   0000000000CA     261          20211215      ISB21203749         ITGRANDI SALUMIFICI ITALIANI-BOLOGNA                INTERPORTO - BLOCCO 10.4                          40010     BENTIVOGLIO                                       BO  0000203514GCC+FJ586
R02654810361     B203749    202112151800357401370477564016                SALAME MILANO GR.120 GV                 08004225940167000058133408   20220208000001000000600F
R02654810361     B203749    202112151800357401370477564389                ANTIPASTO MISTO GRAN VASC.GR.120 FP     08007699006568140221         20220310000001000000600F
R02654810361     B203749    202112151800357401370477564566                MORTADELLA IGP GR.120 GV FP             08004225945667000073149121   20220125000001000000600F
R02654810361     B203749    202112151800357401370477564595                PROSC.CRUDO GR.100 GRANVASCHETTA FP     08004225945957000058134408   20220208000001000000500F
R02654810361     B203749    202112151800357401370477564781                PR.COTTO AFF.GRANTENERONE GR.110        08004225947814000002149063   20220118000002000001760F
T02654810361     F160655    20211215758847                             00000000202112170102583                      GASTRONOMIA DEL CORSO S.R.L. UNIPERSONALE         C.SO V. EMANUELE II 39                            33170     PORDENONE                                         PN  GASTRONOMIA DEL CORSO S.R.L. UNIPERSONALE         C.SO V. EMANUELE II 39                            33170     PORDENONE                                         PN  00006897000006897000000300000000000   0000000000CA     261          20211215      ISF21160655         ITGRANDI SALUMIFICI ITALIANI-BOLOGNA                INTERPORTO - BLOCCO 10.4                          40010     BENTIVOGLIO                                       BO  000017644XM46+62586
R02654810361     F160655    202112151800357401370237433017                PR.PARMA REGIO 24M CAVAZZUTI            98004225930178000016149011   20221207000003000068970V
T02654810361     F160656    20211215758850                             00000000202112210017835                      PIETRO NOLGI S.N.C. DI I. NOLGI & C.              VIA CAV. VITTORIO VENETO , 5                      33050     POCENIA                                           UD  PIETRO NOLGI S.N.C. DI I. NOLGI & C.              VIA CAV. VITTORIO VENETO , 5                      33050     POCENIA                                           UD  00009854000009854000001500000000000   0000000000CA     261          20211215      ISF21160656         ITGRANDI SALUMIFICI ITALIANI-BOLOGNA                INTERPORTO - BLOCCO 10.4                          40010     BENTIVOGLIO                                       BO  000018030R4Q2+CF586
R02654810361     F160656    202112153800357471765360611034                SPECK PRIMO FIORE 1/4 SV                98003013010344000012133506   20220430000005000038540V
R02654810361     F160656    202112151800357401370477563170                PR.PROSCIUTTINO BEC 500G E 12PZ         08009305931707000053131410   20220509000005000030000F
R02654810361     F160656    202112151800357401370477565739                COTECHINO CAV. GR.500 "CARNI NAZ."      08004225957394000048132009   20231201000005000030000F
T02654810361     F160657    20211215758961                             00000000202112170014315                      ALIM SIEGA DI SIEGA MARIA E C.SNC                 VIA PIAVE N 120                                   33085     MANIAGO                                           PN  ALIM SIEGA DI SIEGA MARIA E C.SNC                 VIA PIAVE N 120                                   33085     MANIAGO                                           PN  00004452000004452000000500000000000   0000000000CA     261          20211215      ISF21160657         ITGRANDI SALUMIFICI ITALIANI-BOLOGNA                INTERPORTO - BLOCCO 10.4                          40010     BENTIVOGLIO                                       BO  0000198575M8W+JH586
R02654810361     F160657    20211215180035740137047756MKN9                DISPLAY MORT.2T GOLD CARNI NAZ.100%     08004225503072231220         00000000000001000000250F
R02654810361     F160657    202112151800357401367752780024                PR.COTTO AQ GRAN TENERONE -1PZ-         98004225900249000019148018   20220508000002000015230V
R02654810361     F160657    202112151800357401370237433238                MORT.PIS.ALC.C.NAZ.D=28 1/2 KG.15SV     98004225932387000051133603   20220215000002000029040V
T02654810361     B203750    20211215758969                             00000000202112170033331                      F.LLI FOSCHIANI S.R.L.                            VIA TAVAGNACCO 83/7                               33100     UDINE                                             UD  F.LLI FOSCHIANI S.R.L.                            VIA TAVAGNACCO 83/7                               33100     UDINE                                             UD  00007383000007383000000800000000000   0000000000CA     261          20211215      ISB21203750         ITGRANDI SALUMIFICI ITALIANI-BOLOGNA                INTERPORTO - BLOCCO 10.4                          40010     BENTIVOGLIO                                       BO  00002026236RJ+W3586
R02654810361     B203750    202112151800357401370237433369                MORT.BOLOGNA IGP CM1/2 SIG.KG.10 SV     98004225933698000021133303   20220212000005000053590V
R02654810361     B203750    202112151800357401370237433376                MORT.BOLOGNA IGP CM 1/2 KG.6 SV         98004225933766000021133702   20220216000001000006030V
R02654810361     B203750    202112151800357401370237435958                LARDO TOSCANO CAVAZZUTI                 9800422595958203351015       20220530000002000014210V
T02654810361     F160658    20211215758983                             00000000202112170024559                      MONTANAR ALIMENTARI S.N.C. DI MONTANAR L.         VIA GRAMSCI 3  SAN MARTINO                        33050     TERZO DI AQUILEIA                                 UD  MONTANAR ALIMENTARI S.N.C. DI MONTANAR L.         VIA GRAMSCI 3  SAN MARTINO                        33050     TERZO DI AQUILEIA                                 UD  00005054000005054000000400000000000   0000000000CA     261          20211215      ISF21160658         ITGRANDI SALUMIFICI ITALIANI-BOLOGNA                INTERPORTO - BLOCCO 10.4                          40010     BENTIVOGLIO                                       BO  000018000Q8XM+MC586
R02654810361     F160658    202112151800357401370237431092                SPECK MONTAGNA 1/2 SV                   98003013010924000031132201   20220417000002000020000V
R02654810361     F160658    202112151800357401370237438307                PR.S.DANIELE RISERVA S/O PRESS.18M      98004831150502000000104608   20220614000002000030540V
T02654810361     B203751    20211215759467    4507174809               20211215202112160043315         8001120570864(LPA)CENTR.ADRIATICA-T.AWAY IPER PREZZ. FLS       VIA ODERZO 21                                     33100     UDINE                                             UD  (LPA)CENTR.ADRIATICA-T.AWAY IPER PREZZ. FLS       VIA ODERZO 21                                     33100     UDINE                                             UD  00031276000031276000019500000000000   0000000000CA     261          20211215      ISB21203751         ITGRANDI SALUMIFICI ITALIANI-BOLOGNA                INTERPORTO - BLOCCO 10.4                          40010     BENTIVOGLIO                                       BO  00002015626HR+5M283
R02654810361     B203751    202112151800357401370721920679                PR.CRUDO NAZ.GR.140 GV TA               08004225909935140019         20220123000004000008960F
R02654810361     B203751    202112151800357401370721921862                PR.PARMA FF 24M TA GR.60                08001120099808139977         20220123000007000003360F
R02654810361     B203751    202112151800357401370424471863                P.COTTO AQ FF TA GR.70                  08001120099778140410         20220113000010000005600F
R02654810361     B203751    202112151800357401370721921864                MORTADELLA FF TA GR.70                  08001120099785139959         20220109000007000003920F
R02654810361     B203751    202112151800357401370721921865                BRESAOLA FF GR.60                       08001120099792139952         20220123000005000002400F
R02654810361     B203751    202112151800357401370424542345                PR.S.DANIELE DOP FIOR FIORE GR.90       0800112010985941341          20220121000017000018360F
R02654810361     B203751    202112151800357401367753153999                SPECK FIOR FIORE FIL COOP GR.100        08001120095831140451         20220127000022000022000F
R02654810361     B203751    202112151800357401371958604145                PR.CRUDO MO DOP FIL.COOP GR.120 FF      08001120104526140169         20220124000007000013440F
R02654810361     B203751    202112151800357401371958774330                P.COTTO F.FIORE FIL.COOP GR 140         08001120104489000073150005   20220107000008000017920F
R02654810361     B203751    202112153800769910062659364330                P.COTTO F.FIORE FIL.COOP GR 140         08001120104489000073150015   20220107000042000094080F
R02654810361     B203751    202112151800357401370721924968                MORT.BO IGP CASA MO GR.130              08004225949689000005134713   20220107000002000004160F
R02654810361     B203751    202112151800357401367753224974                SAL.UNGHERESE GR.100 TA                 08004225949740000022134412   20220124000012000019200F
R02654810361     B203751    202112151800357401370721924975                SAL.MILANO GR.100 TA                    08004225949757000058134018   20220120000001000001600F
R02654810361     B203751    202112151800357401370721924978                SPECK COTTO GR.120 TA                   08004225949788000002150003   20220107000001000001920F
R02654810361     B203751    202112151800357401370563214979                PR.COTTO A.Q.REGALE GR.130 TA           08004225949795000002149088   20220104000009000018720F
R02654810361     B203751    202112151800357401371958534985                PROSC.CRUDO MONTE CAIO G.120 TA         08004225949856000037134412   20220124000007000013440F
R02654810361     B203751    202112151800357401370563384992                SPECK AA IGP GR.120 TA                  08004225949924000013134703   20220127000029000055680F
R02654810361     B203751    202112151800357401370721924994                PANCETTA AFF.TA TESA GR.100 TA          08004225949948000013134303   20220123000005000008000F
T02654810361     F160659    20211215741102                             00000000202112170110037                      G.V. S.N.C. DI GIACON A.& C.                      VIA SOTTO IL SALONE 37/38                         35122     PADOVA                                            PD  G.V. S.N.C. DI GIACON A.& C.                      VIA SOTTO IL SALONE 37/38                         35122     PADOVA                                            PD  00006194000006194000000400000000000   0000000000CA     261          20211215      ISF21160659         ITGRANDI SALUMIFICI ITALIANI-BOLOGNA                INTERPORTO - BLOCCO 10.4                          40010     BENTIVOGLIO                                       BO  000038672CV4G+X2584
R02654810361     F160659    20211215180035740136887810MKF8                KIT MATERIALI POP PIAVE                 08004225503218011021         20221001000001000000700F
R02654810361     F160659    202112151800357401368877971971                PIAVE DOP MEZZANO 1/4 DI FORMA          98000212083643211206         20220803000002000003140V
R02654810361     F160659    202112153800483102586054873543                MORT.DUE TORRI IGP CILIND.KG.60         98004225935432000068134801   20220128000001000058100V
T02654810361     B203752    20211215746513    210295444_000            20211209202112170102245         7618         GEMEAZ ELIOR SPA-IST.SUORE DOROTEE DI VICENZA     S.S. CUORI ANG.V. S. DOMENICO                     36100     VICENZA                                           VI  GEMEAZ ELIOR SPA-IST.SUORE DOROTEE DI VICENZA     S.S. CUORI ANG.V. S. DOMENICO                     36100     VICENZA                                           VI  00004776000004776000000800000000000   0000000000CA     261          20211215      ISB21203752         ITGRANDI SALUMIFICI ITALIANI-BOLOGNA                INTERPORTO - BLOCCO 10.4                          40010     BENTIVOGLIO                                       BO  000015622HH23+7P584
R02654810361     B203752    202112151800357401370420651029                SPECK MONT.GRAN RESA 1/2 SF PROF        98003013010290000031134106   20220506000002000011130V
R02654810361     B203752    202112151800357401367753533506                MORT.BOLOGNA IGP 1/2 KG.3,5 SV          98004225935067000021132803   20220207000001000006630V
R02654810361     B203752    202112151800357401371930715742                COTECHINO COLLEMILIA GR.500             08004225957424000048134111   20231222000005000030000F
T02654810361     B203753    20211215747255                             00000000202112170071703                      CRAVEDI SPA                                       VIALE DELLA REPUBBLICA,4/C                        31050     FONTANE DI VILLORBA                               TV  CRAVEDI SPA                                       VIALE DELLA REPUBBLICA,4/C                        31050     FONTANE DI VILLORBA                               TV  00055200000055200000024000000000000   0000000000CA     261          20211215      ISB21203753         ITGRANDI SALUMIFICI ITALIANI-BOLOGNA                INTERPORTO - BLOCCO 10.4                          40010     BENTIVOGLIO                                       BO  000017174M7X4+MC584
R02654810361     B203753    202112151800357401368878109972                CASSETTA REGALO IV                      08004225999721000031134003   20220505000005000011500F
R02654810361     B203753    202112151800357401371930719972                CASSETTA REGALO IV                      08004225999721000031134003   20220505000004000009200F
R02654810361     B203753    202112153800357471613266919972                CASSETTA REGALO IV                      08004225999721000031134404   20220509000054000124200F
R02654810361     B203753    202112153800357471613267079972                CASSETTA REGALO IV                      08004225999721000031134404   20220509000054000124200F
R02654810361     B203753    202112153800357471613267149972                CASSETTA REGALO IV                      08004225999721000031134404   20220509000054000124200F
R02654810361     B203753    202112153800357471613267459972                CASSETTA REGALO IV                      08004225999721000031134404   20220509000054000124200F
R02654810361     B203753    202112153800357471613267839972                CASSETTA REGALO IV                      08004225999721000031134404   20220509000015000034500F
T02654810361     F160660    20211215753332                             00000000202112160110532                      FORNO RUBIERO S.R.L.                              VIA G. MIANI 10                                   45100     ROVIGO                                            RO  FORNO RUBIERO S.R.L.                              VIA G. MIANI 10                                   45100     ROVIGO                                            RO  00003310000003310000000300000000000   0000000000CA     261          20211215      ISF21160660         ITGRANDI SALUMIFICI ITALIANI-BOLOGNA                INTERPORTO - BLOCCO 10.4                          40010     BENTIVOGLIO                                       BO  0000143213Q9R+MX021
R02654810361     F160660    202112151800357401371266285087                PROSC.PARMA S/O TONDO 18 M. 1PZXCT      98004225950879002512138040   20220427000002000015140V
R02654810361     F160660    202112151800357401371867768309                PR.S.DANIELE RISERVA S/O ADDOBB.18M     98004831150601000000104601   20220612000001000017960V
T02654810361     F160661    20211215754998                             00000000202112150074136                      COSMOPAN S.N.C. DI COSMO YURI & C.                P.ZA DANTE,3                                      30038     SPINEA                                            VE  COSMOPAN S.N.C. DI COSMO YURI & C.                P.ZA DANTE,3                                      30038     SPINEA                                            VE  00001568000001568000000500000000000   0000000000CA     261          20211215      ISF21160661         ITGRANDI SALUMIFICI ITALIANI-BOLOGNA                INTERPORTO - BLOCCO 10.4                          40010     BENTIVOGLIO                                       BO  000016686F5R9+R8584
R02654810361     F160661    202112151800357401367753530414                SPECK AA IGP GRAN RESA 1/2 SV           98003013004145000012134010   20220505000001000005130V
R02654810361     F160661    202112151800357401371930712039                WUERSTEL SENFTER PS 100G -30PZ-         08003013920398000000230322   20220323000001000003000F
R02654810361     F160661    202112151800357401368877974536                TACCHINO ARROSTO LIBERAMENTE SV         98004225945363000000010322   20220301000002000006650V
R02654810361     F160661    202112151800357401368878105611                TENERONE ORIGINALE GR.150 -6PZ-         08004225956113000012134403   20220208000001000000900F
T02654810361     F160662    20211215755005                             00000000202112150064906                      ZANON MARCO  MACELL. DA MARCO                     VIA MOGLIANESE 218   PESAGGIA                     30037     SCORZE'                                           VE  ZANON MARCO  MACELL. DA MARCO                     VIA MOGLIANESE 218   PESAGGIA                     30037     SCORZE'                                           VE  00004619000004619000000300000000000   0000000000CA     261          20211215      ISF21160662         ITGRANDI SALUMIFICI ITALIANI-BOLOGNA                INTERPORTO - BLOCCO 10.4                          40010     BENTIVOGLIO                                       BO  000016941H56M+P6584
R02654810361     F160662    202112151800357401370387093359                MORT.DUE TORRI VESC.NAT.KG.13/15 SV     98004831052202000051133704   20220313000001000014880V
R02654810361     F160662    202112151800357401369088053483                PROSCIUT.COTTO ALTA QUALITA'GARDENA     98004225934831000019146006   20220418000002000031310V
T02654810361     F160663    20211215755115                             00000000202112170023330                      Y SRL UNIPERSONALE - SUPER NANTO                  VIA COLLISSONA 1                                  36024     NANTO                                             VI  Y SRL UNIPERSONALE - SUPER NANTO                  VIA COLLISSONA 1                                  36024     NANTO                                             VI  00004773000004773000004800000000000   0000000000CA     261          20211215      ISF21160663         ITGRANDI SALUMIFICI ITALIANI-BOLOGNA                INTERPORTO - BLOCCO 10.4                          40010     BENTIVOGLIO                                       BO  000015328FJH5+5H584
R02654810361     F160663    202112151800357401368878100738                PECORINO ROMANO DOP GRAT.QC G50 X20     080107219320630007L21422     20220219000001000001000F
R02654810361     F160663    202112151800357401371930710798                FORM.GRATT.CUOR DI MIX GR.70 X20        080107219968740010L21416     20220211000001000001400F
R02654810361     F160663    202112151800357401368878101312                SALAME ECOPACK GR.80 CM                 08004225913123000022133013   20220125000001000000800F
R02654810361     F160663    202112151800357401368878101605                SCAMORZA AFFUMICATA GR.140X10           080107219986870029L21428     20220205000001000001400F
R02654810361     F160663    202112151800357401368878103165                WUERSTEL SERVELADE 200 GR SV            08003013931653000000280222   20220228000001000002400F
R02654810361     F160663    202112151800357401368878104029                PANC.MAGRETTA FP GR.100 GV              08004225940297000037134509   20220219000002000001000F
R02654810361     F160663    202112151800357401368878104368                PORCHETTA GR.150 GV F.LLI PARM.         08004225943687000073150033   20220128000003000002250F
R02654810361     F160663    202112151800357401368878104385                SAL.FELINO IGP GRAN VASC.GR.120 FP      18007699006527139682         20220307000003000001800F
R02654810361     F160663    202112151800357401368878104389                ANTIPASTO MISTO GRAN VASC.GR.120 FP     08007699006568140221         20220310000004000002400F
R02654810361     F160663    202112151800357401368878104551                SPECK ALTO ADIGE IGP SENFTER 100G       08003013945513000013134302   20220222000004000003200F
R02654810361     F160663    202112151800357401368878104580                PR.COTTO AQ GR.120 GRANVASCHETTA FP     08004225945803000073150030   20220113000004000002400F
R02654810361     F160663    202112151800357401368878104711                PROSCIUTTO COTTO PRAGA SENFTER 125G     08003013947111000073150024   20220126000001000001000F
R02654810361     F160663    202112151800357401368878104781                PR.COTTO AFF.GRANTENERONE GR.110        08004225947814000002149063   20220118000002000001760F
R02654810361     F160663    202112151800357401368878104796                BRESAOLA GR.100 GRANVASCHETTA           08004225947968000058134705   20220211000003000001500F
R02654810361     F160663    202112151800357401368878104910                PR.PARMA 24MESI GR.100 FP               08004225949108000037134512   20220301000004000002000F
R02654810361     F160663    202112151800357401371930715610                TENERONI BABY MINI ORIG.GR.150-12PZ     08004225956106000087134402   20220131000001000001800F
R02654810361     F160663    202112151800357401371930715630                TENERONE DI P.COTTO                     08004225956304000012134301   20220207000002000003600F
R02654810361     F160663    202112151800357401371930715636                TENERONE MOZZARELLA DI P.COTTO          08004225956366000012134402   20220208000001000001800F
R02654810361     F160663    202112151800357401368878105821                GIRAVOLTE MOZZARELLA E COTTO GR.170     08004225958216000000013401   20220127000001000001020F
R02654810361     F160663    202112151800357401371930715868                PARMIGIANO REGGIANO SNACK GR.100        080107210104020024L21428     20220430000002000002000F
R02654810361     F160663    202112151800357401368878105871                FETTINE AL PARMIGIANO REGG.GR.150       0801072199682900220522       20220522000001000002700F
R02654810361     F160663    202112151800357401368878105873                BURRO PARMAREGGIO GR.100 X16            0801072199353800CL21422      20220224000003000004800F
R02654810361     F160663    202112151800357401368878105894                PARM.REGG.22 MESI GR.250 X10            080107219988920021L21427     20220528000001000002500F
R02654810361     F160663    202112151800357401371930715916                SPECK CUBETTI SENFTER GR.100            08004225959169000022133423   20220310000001000001200F
T02654810361     F160664    20211215755254                             00000000202112170044135                      KA.NA.MA.GIA. S.A.S. DI  XIANG XIAOJIN & C.       VIALE FRANCIA 4 A                                 31100     TREVISO                                           TV  KA.NA.MA.GIA. S.A.S. DI  XIANG XIAOJIN & C.       VIALE FRANCIA 4 A                                 31100     TREVISO                                           TV  00004316000004316000000900000000000   0000000000CA     261          20211215      ISF21160664         ITGRANDI SALUMIFICI ITALIANI-BOLOGNA                INTERPORTO - BLOCCO 10.4                          40010     BENTIVOGLIO                                       BO  000017144M6M5+WV584
R02654810361     F160664    202112151800357401367753530743                SAL.NAPOLI PICC.CURVA CM SV             98004225907439000057134817   20220314000001000001690V
R02654810361     F160664    202112151800357401370420653369                MORT.BOLOGNA IGP CM1/2 SIG.KG.10 SV     98004225933698000021133303   20220212000001000010520V
R02654810361     F160664    202112151800357401370420653370                MORT.BOLOGNA IGP 1/2 SIG.KG.10 PIST     98004225933704000021133502   20220214000001000010720V
R02654810361     F160664    202112151800357401371266285186                PR.CRUDO S/O 14M CM - 1PZ X CRT         98004225951869001512141050   20220513000002000015230V
R02654810361     F160664    202112151800357401368878105611                TENERONE ORIGINALE GR.150 -6PZ-         08004225956113000012134403   20220208000002000001800F
R02654810361     F160664    202112151800357401368878105666                COTECHINO 2 FETTE ALL.GR.160 C.M.       08004225956663000055132701   20230517000001000001600F
R02654810361     F160664    202112151800357401368878105680                ZAMPONE FETTE ALLUMINIO GR.160 CM       08004225956809000055125701   20230308000001000001600F
T02654810361     F160665    20211215755353                             00000000202112170034509                      L'AGROALIMENTARE SNC DI LOVATO G.& C.             VIA CIRCOVALLAZIONE 5                             36045     LONIGO                                            VI  L'AGROALIMENTARE SNC DI LOVATO G.& C.             VIA CIRCOVALLAZIONE 5                             36045     LONIGO                                            VI  00023162000023162000001900000000000   0000000000CA     261          20211215      ISF21160665         ITGRANDI SALUMIFICI ITALIANI-BOLOGNA                INTERPORTO - BLOCCO 10.4                          40010     BENTIVOGLIO                                       BO  00001490699PR+3J584
R02654810361     F160665    202112151800357401370420651011                PANCETTA AFFUM.MONTAGNA 1/2 SV          98003013010115000031133605   20220312000001000004310V
R02654810361     F160665    202112151800357401370420651508                SPECK GRAN RESA 1/1 SV X NT             98003013015080000012134310   20220508000001000010700V
R02654810361     F160665    202112151800357401368877971971                PIAVE DOP MEZZANO 1/4 DI FORMA          98000212083643211206         20220803000001000001570V
R02654810361     F160665    202112151800357401370387093157                PR.COTTO AQ GRAN TENERONE               98004225931571000019147012   20220428000008000127600V
R02654810361     F160665    202112151800357401369088053653                PR.COTTO AQ GRAN DELIZIA ORO CM         98004225936538000019145008   20220411000004000057080V
R02654810361     F160665    202112151800357401369088054597                PANCETTA STUFATA DOPPIA 1/2             98003013045971000014148044   20220228000004000030360V
T02654810361     B203754    20211215755395    13798/03                 20211214202112160054872                      SUP. CADORO SPA - C O VOLALTO SRL                 VIA T. ABBATE 65                                  30020     QUARTO D'ALTINO                                   VE  SUP. CADORO SPA - C O VOLALTO SRL                 VIA T. ABBATE 65                                  30020     QUARTO D'ALTINO                                   VE  00008360000008360000009500000000000   0000000000CA     261          20211215      ISB21203754         ITGRANDI SALUMIFICI ITALIANI-BOLOGNA                INTERPORTO - BLOCCO 10.4                          40010     BENTIVOGLIO                                       BO  000016969H8HX+5J027
R02654810361     B203754    202112151800357401370379554436                PR.COTTO LIBERAMENTE GR.110 CM          08004225944363000002149004   20220115000001000000880F
R02654810361     B203754    202112151800357401370379554436                PR.COTTO LIBERAMENTE GR.110 CM          08004225944363000002149017   20220115000056000049280F
R02654810361     B203754    202112151800357401370379484440                MORTADELLA LIBERAMENTE GR.110 CM        08004225944400000073149127   20220120000038000033440F
T02654810361     F160666    20211215755489                             00000000202112170105104                      RISPARMIO PIU' SRL                                VIA SPONTINI 8                                    45100     ROVIGO                                            RO  RISPARMIO PIU' SRL                                VIA SPONTINI 8                                    45100     ROVIGO                                            RO  00009154000009154000000600000000000   0000000000CA     261          20211215      ISF21160666         ITGRANDI SALUMIFICI ITALIANI-BOLOGNA                INTERPORTO - BLOCCO 10.4                          40010     BENTIVOGLIO                                       BO  0000143173Q9G+J2584
R02654810361     F160666    202112151800357401370387093156                SALAME DEGLI ESTENSI KG.9               98004225931564081021         20220228000001000009580V
R02654810361     F160666    202112151800357401370387093157                PR.COTTO AQ GRAN TENERONE               98004225931571000019147012   20220428000003000047670V
R02654810361     F160666    202112151800357401369088053490                P.COTTO STELLA D'EMILIA                 98004225934909000001146012   20220421000001000015820V
R02654810361     F160666    202112151800357401371867765176                PROSC.PARMA DIS.ADDOBBO PESANTE         98004225951760003512136030   20220407000001000018470V
T02654810361     F160667    20211215755497                             00000000202112170100068                      RISPARMIO PIU' SRL                                VIA A. MORO 39                                    45011     ADRIA                                             RO  RISPARMIO PIU' SRL                                VIA A. MORO 39                                    45011     ADRIA                                             RO  00009793000009793000000900000000000   0000000000CA     261          20211215      ISF21160667         ITGRANDI SALUMIFICI ITALIANI-BOLOGNA                INTERPORTO - BLOCCO 10.4                          40010     BENTIVOGLIO                                       BO  000016253323X+5C584
R02654810361     F160667    202112151800357401370420650689                PANCETTA COPPATA 1/2 CRYOVAC KG.2,5     98004225906890002184462341   20220406000001000004630V
R02654810361     F160667    202112151800357401367753531509                SPECK GRAN RESA 1/2 SV X NT             98003013015097000012134407   20220509000001000005580V
R02654810361     F160667    202112151800357401368877971971                PIAVE DOP MEZZANO 1/4 DI FORMA          98000212083643211206         20220803000001000001610V
R02654810361     F160667    202112151800357401370387092608                PROS.COTTO ALTA QUALITA'RUST.1PZ CM     98003013026086000014147089   20220410000001000009260V
R02654810361     F160667    202112151800357401370387093157                PR.COTTO AQ GRAN TENERONE               98004225931571000019147012   20220428000003000049900V
R02654810361     F160667    202112151800357401369088053490                P.COTTO STELLA D'EMILIA                 98004225934909000001146012   20220421000001000015830V
R02654810361     F160667    202112151800357401371867765814                PR.CRUDO S/O 14M CASA MODENA            98004225958141003512145040   20220616000001000011120V
T02654810361     B203755    20211215755510                             00000000202112170107256                      F.LLI PREGNOLATO S.A.S. DI PREGNOLATO D.& C.      VIA G. MATTEOTTI 553                              45018     PORTO TOLLE                                       RO  F.LLI PREGNOLATO S.A.S. DI PREGNOLATO D.& C.      VIA G. MATTEOTTI 553                              45018     PORTO TOLLE                                       RO  00005083000005083000000700000000000   0000000000CA     261          20211215      ISB21203755         ITGRANDI SALUMIFICI ITALIANI-BOLOGNA                INTERPORTO - BLOCCO 10.4                          40010     BENTIVOGLIO                                       BO  000008104X83W+88584
R02654810361     B203755    202112151800357401367753533132                COPPA GRAN RISERVA PELATA C.M. SV       98004225931328002150144340   20220405000001000003220V
R02654810361     B203755    202112151800357401368877973171                BRESAOLA P.ANCA 1/1 SV IGP SENFTER      98003013031714821480093      20220303000001000003640V
R02654810361     B203755    202112151800357401371930713458                MORT.LAVINO OVALE KG.1 SV/2NR           08004831062536000055132605   20220302000001000006000F
R02654810361     B203755    202112151800357401369088053654                PR.COTTO SCELTO GRAN MAGRO ORO CM       98004225936545000001143016   20220404000002000031140V
R02654810361     B203755    202112153800357471772143023680                PANC.MAGRETTA 'C.M.'                    98004225936804002194728335   20220331000001000003510V
R02654810361     B203755    202112151800357401368877974536                TACCHINO ARROSTO LIBERAMENTE SV         98004225945363000000010322   20220301000001000003320V
T02654810361     B203756    20211215755668                             00000000202112170093377                      SUPERMARKET SAREGO SAS DI SAREGO D.               VIA L. LAGRANGE 25                                35122     PADOVA                                            PD  SUPERMARKET SAREGO SAS DI SAREGO D.               VIA L. LAGRANGE 25                                35122     PADOVA                                            PD  00003547000003547000000200000000000   0000000000CA     261          20211215      ISB21203756         ITGRANDI SALUMIFICI ITALIANI-BOLOGNA                INTERPORTO - BLOCCO 10.4                          40010     BENTIVOGLIO                                       BO  0000149729RXH+MG584
R02654810361     B203756    202112151800357401371867768309                PR.S.DANIELE RISERVA S/O ADDOBB.18M     98004831150601000000104601   20220612000002000035470V
T02654810361     F160668    20211215755689                             00000000202112170053389                      RANZATO MAURO   MAURO FRUTTA                      VIA DIAZ, 178   PERAROLO                          35010     VIGONZA                                           PD  RANZATO MAURO   MAURO FRUTTA                      VIA DIAZ, 178   PERAROLO                          35010     VIGONZA                                           PD  00000831000000831000000900000000000   0000000000CA     261          20211215      ISF21160668         ITGRANDI SALUMIFICI ITALIANI-BOLOGNA                INTERPORTO - BLOCCO 10.4                          40010     BENTIVOGLIO                                       BO  000015265CXHG+F5584
R02654810361     F160668    202112151800357401368878103165                WUERSTEL SERVELADE 200 GR SV            08003013931653000000280222   20220228000001000002400F
R02654810361     F160668    202112151800357401368878104368                PORCHETTA GR.150 GV F.LLI PARM.         08004225943687000073150033   20220128000001000000750F
R02654810361     F160668    202112151800357401368878104389                ANTIPASTO MISTO GRAN VASC.GR.120 FP     08007699006568140221         20220310000001000000600F
R02654810361     F160668    202112151800357401368878104551                SPECK ALTO ADIGE IGP SENFTER 100G       08003013945513000013134302   20220222000002000001600F
R02654810361     F160668    202112151800357401368878104566                MORTADELLA IGP GR.120 GV FP             08004225945667000073149121   20220125000002000001200F
R02654810361     F160668    202112151800357401368878104781                PR.COTTO AFF.GRANTENERONE GR.110        08004225947814000002149063   20220118000002000001760F
T02654810361     B203757    20211215755719    2021/24587               20211214202112160025524                      SUPERMERCATI VISOTTO S.R.L.                       VIA CHERSO 16/A                                   31045     MOTTA DI LIVENZA                                  TV  SUPERMERCATI VISOTTO S.R.L.                       VIA CHERSO 16/A                                   31045     MOTTA DI LIVENZA                                  TV  00007574000007574000006600000000000   0000000000CA     261          20211215      ISB21203757         ITGRANDI SALUMIFICI ITALIANI-BOLOGNA                INTERPORTO - BLOCCO 10.4                          40010     BENTIVOGLIO                                       BO  000017315QHMR+GP027
R02654810361     B203757    202112151800357401371838124436                PR.COTTO LIBERAMENTE GR.110 CM          08004225944363000002149004   20220115000019000016720F
R02654810361     B203757    202112151800357401371839594441                TACCHINO ARR.LIBERAMENTE GR.110 CM      08004225944417000073149034   20220116000019000016720F
R02654810361     B203757    202112151800357401371838365630                TENERONE DI P.COTTO                     08004225956304000012134301   20220207000015000027000F
R02654810361     B203757    202112151800357401371266355821                GIRAVOLTE MOZZARELLA E COTTO GR.170     08004225958216000000013401   20220127000007000007140F
R02654810361     B203757    202112151800357401371266355892                MERENDA TENERONI BAGUETTE CRUDO 170     080042259589260068L2143900   20220115000006000008160F
T02654810361     B203758    20211215755901    2021/24613               20211214202112160025524                      SUPERMERCATI VISOTTO S.R.L.                       VIA CHERSO 16/A                                   31045     MOTTA DI LIVENZA                                  TV  SUPERMERCATI VISOTTO S.R.L.                       VIA CHERSO 16/A                                   31045     MOTTA DI LIVENZA                                  TV  00014580000014580000002700000000000   0000000000CA     261          20211215      ISB21203758         ITGRANDI SALUMIFICI ITALIANI-BOLOGNA                INTERPORTO - BLOCCO 10.4                          40010     BENTIVOGLIO                                       BO  000017315QHMR+GP027
R02654810361     B203758    202112151800357401371929680625                MORT.GUSTO PIU' S/P 450G E CRT12PZ      08009305906255000052134125   20220605000027000145800F
T02654810361     B203759    20211215755944    CRMFOR20210446894        20211214202112160061267         8003160037307COMM.INDIP.ASSOC.SOC.COOP.-CEDI SCORZE'           VIA G. DE POLO 13                                 30037     SCORZE'                                           VE  COMM.INDIP.ASSOC.SOC.COOP.-CEDI SCORZE'           VIA G. DE POLO 13                                 30037     SCORZE'                                           VE  00011300000011300000008900000000000   0000000000CA     261          20211215      ISB21203759         ITGRANDI SALUMIFICI ITALIANI-BOLOGNA                INTERPORTO - BLOCCO 10.4                          40010     BENTIVOGLIO                                       BO  000016939H4PP+QX027
R02654810361     B203759    202112151800357401371837374436                PR.COTTO LIBERAMENTE GR.110 CM          08004225944363000002149004   20220115000030000026400F
R02654810361     B203759    202112151800357401371837514441                TACCHINO ARR.LIBERAMENTE GR.110 CM      08004225944417000073149034   20220116000015000013200F
R02654810361     B203759    202112151800357401371837445630                TENERONE DI P.COTTO                     08004225956304000012134301   20220207000015000027000F
R02654810361     B203759    202112151800357401371867695680                ZAMPONE FETTE ALLUMINIO GR.160 CM       08004225956809000055125701   20230308000029000046400F
T02654810361     F160669    20211215755962                             00000000202112170108818                      EUROPOLESELLA S.R.L.                              S.S. 16  2762                                     45038     POLESELLA                                         RO  EUROPOLESELLA S.R.L.                              S.S. 16  2762                                     45038     POLESELLA                                         RO  00012914000012914000001200000000000   0000000000CA     261          20211215      ISF21160669         ITGRANDI SALUMIFICI ITALIANI-BOLOGNA                INTERPORTO - BLOCCO 10.4                          40010     BENTIVOGLIO                                       BO  000037227XP6R+HF584
R02654810361     F160669    202112151800357401370420650689                PANCETTA COPPATA 1/2 CRYOVAC KG.2,5     98004225906890002184462341   20220406000001000004510V
R02654810361     F160669    202112151800357401370420651508                SPECK GRAN RESA 1/1 SV X NT             98003013015080000012134310   20220508000002000021250V
R02654810361     F160669    202112151800357401368877971971                PIAVE DOP MEZZANO 1/4 DI FORMA          98000212083643211206         20220803000001000001500V
R02654810361     F160669    202112151800357401369088053407                MORT.DUE TORRI PIS.NT CIL.K.30 SV/2     98004225934077000051133715   20220313000002000029010V
R02654810361     F160669    202112151800357401371266285018                PROS.PR.DIS.SEL.22M CAVAZZUTI           98004225950183002512148040   20220704000004000037110V
R02654810361     F160669    202112151800357401371867768309                PR.S.DANIELE RISERVA S/O ADDOBB.18M     98004831150601000000104601   20220612000002000035760V
T02654810361     B203760    20211215756104    F0341423                 20211214202112160084329         900007       AMA CRAI EST SOC.COOP.                            VIA E. FERMI 5                                    31044     MONTEBELLUNA                                      TV  AMA CRAI EST SOC.COOP.                            VIA E. FERMI 5                                    31044     MONTEBELLUNA                                      TV  00000612000000612000000600000000000   0000000000CA     261          20211215      ISB21203760         ITGRANDI SALUMIFICI ITALIANI-BOLOGNA                INTERPORTO - BLOCCO 10.4                          40010     BENTIVOGLIO                                       BO  000017263Q39F+79027
R02654810361     B203760    202112151800357401371838055821                GIRAVOLTE MOZZARELLA E COTTO GR.170     08004225958216000000013401   20220127000006000006120F
T02654810361     B203761    20211215756111    F0341422                 20211214202112160084329         900007       AMA CRAI EST SOC.COOP.                            VIA E. FERMI 5                                    31044     MONTEBELLUNA                                      TV  AMA CRAI EST SOC.COOP.                            VIA E. FERMI 5                                    31044     MONTEBELLUNA                                      TV  00006480000006480000001000000000000   0000000000CA     261          20211215      ISB21203761         ITGRANDI SALUMIFICI ITALIANI-BOLOGNA                INTERPORTO - BLOCCO 10.4                          40010     BENTIVOGLIO                                       BO  000017263Q39F+79027
R02654810361     B203761    202112151800357401370722085742                COTECHINO COLLEMILIA GR.500             08004225957424000048134111   20231222000009000054000F
R02654810361     B203761    202112151800357401370557205743                ZAMPONE COLLEMILIA GR.900               08004225957431000048134701   20231228000001000010800F
T02654810361     B203762    20211215756143    F0341425                 20211214202112160084329         900007       AMA CRAI EST SOC.COOP.                            VIA E. FERMI 5                                    31044     MONTEBELLUNA                                      TV  AMA CRAI EST SOC.COOP.                            VIA E. FERMI 5                                    31044     MONTEBELLUNA                                      TV  00018387000018387000011100000000000   0000000000CA     261          20211215      ISB21203762         ITGRANDI SALUMIFICI ITALIANI-BOLOGNA                INTERPORTO - BLOCCO 10.4                          40010     BENTIVOGLIO                                       BO  000017263Q39F+79027
R02654810361     B203762    202112151800357401370562842040                WUERSTEL SENFTER PS G.250 -15PZ-        08003013920404000000300322   20220330000013000048750F
R02654810361     B203762    202112151800357401371266113165                WUERSTEL SERVELADE 200 GR SV            08003013931653000000280222   20220228000008000019200F
R02654810361     B203762    202112151800357401370387614436                PR.COTTO LIBERAMENTE GR.110 CM          08004225944363000002149106   20220119000019000016720F
R02654810361     B203762    202112151800357401370387474440                MORTADELLA LIBERAMENTE GR.110 CM        08004225944400000073149127   20220120000019000016720F
R02654810361     B203762    202112151800357401371266114441                TACCHINO ARR.LIBERAMENTE GR.110 CM      08004225944417000073149034   20220116000008000007040F
R02654810361     B203762    202112151800357401371266115595                POLPETTE TENERONI GR.200                0800422595595644132          20220113000010000016000F
R02654810361     B203762    202112151800357401370387545630                TENERONE DI P.COTTO                     08004225956304000012134301   20220207000030000054000F
R02654810361     B203762    202112151800357401371266115837                TENERONI LA MERENDA GR.170              080042259583770068L2143600   20220115000004000005440F
T02654810361     B203763    20211215756159    F0341427                 20211214202112160084329         900007       AMA CRAI EST SOC.COOP.                            VIA E. FERMI 5                                    31044     MONTEBELLUNA                                      TV  AMA CRAI EST SOC.COOP.                            VIA E. FERMI 5                                    31044     MONTEBELLUNA                                      TV  00221357000221357000098400000000000   0000000000CA     261          20211215      ISB21203763         ITGRANDI SALUMIFICI ITALIANI-BOLOGNA                INTERPORTO - BLOCCO 10.4                          40010     BENTIVOGLIO                                       BO  000017263Q39F+79027
R02654810361     B203763    202112151800357401371266420183                WURSTEL CRAI POLLO/TACC GR.100 1221     08002895912217000000290322   20220329000128000192000F
R02654810361     B203763    202112151800357401371279840184                WURSTEL CRAI POLLO/TACC GR.250 1222     08002895912224000000150322   20220315000128000384000F
R02654810361     B203763    202112151800357401370722220190                WURSTEL CRAI PURO SUINO GR.100 1215     08002895912156000000100322   20220310000128000192000F
R02654810361     B203763    202112153800563032866852470191                WURSTEL CRAI PURO SUINO GR.250 1216     08002895912163000000160322   20220316000144000432000F
R02654810361     B203763    202112151800357401370495142486                SPECK IGP GR.125 PIAC.ITAL.(2399)       08002895923992000013133002   20220130000019000023750F
R02654810361     B203763    202112151800357401370495142486                SPECK IGP GR.125 PIAC.ITAL.(2399)       08002895923992000013134106   20220210000038000047500F
R02654810361     B203763    202112151800357401371868132964                WUERSTEL MISTO 100 GR. DEL BORGO        08002895912231000000050322   20220305000080000200000F
R02654810361     B203763    202112151800357401370562773522                STINCO CRAI (1205)                      08004225935224000048134003   20231221000006000046800F
R02654810361     B203763    202112151800357401371868204998                PR.COTTO A.Q. GR.100 ARMONIA-1121       08002895911210000002149007   20220115000019000019000F
R02654810361     B203763    202112151800357401370420415624                HAMBURGER DI P.COTTO GR.150 CRAI        08002895903901000012133504   20220130000015000027000F
R02654810361     B203763    202112151800357401370562915696                ZAMPONE CRAI (1203)                     08004225956960000048130704   20231118000011000118800F
R02654810361     B203763    202112151800357401370379865721                COTECHINO CRAI (1204)                   08004225957219000048134105   20231222000026000156000F
R02654810361     B203763    202112153800422550148268595926                PANC.CUB.AFFUM.G200 CRAI-12PZ- 0140     08002895909873000022132822   20220304000090000216000F
R02654810361     B203763    202112151800357401370420585927                PR.COTTO CUBETTI GR.140 CRAI-0387-      08002895909415000022134820   20220123000056000062720F
R02654810361     B203763    202112151800357401370379625928                STICK DI SPECK GR.100 CRAI NEW          08002895903888000059133602   20220322000048000048000F
R02654810361     B203763    202112151800357401370379795928                STICK DI SPECK GR.100 CRAI NEW          08002895903888000059133602   20220322000048000048000F
T02654810361     B203764    20211215756366    0696880                  20211214202112160069046         7096         PAM PANORAMA SPA - CE.DI. INTERPORTO PADOVA       C.SO STATI UNITI 18                               35127     PADOVA                                            PD  PAM PANORAMA SPA - CE.DI. INTERPORTO PADOVA       C.SO STATI UNITI 18                               35127     PADOVA                                            PD  00069185000069185000027300000000000   0000000000CA     261          20211215      ISB21203764         ITGRANDI SALUMIFICI ITALIANI-BOLOGNA                INTERPORTO - BLOCCO 10.4                          40010     BENTIVOGLIO                                       BO  0000150189WVQ+37027
R02654810361     B203764    202112151800357401367753600593                WUERSTEL PRIMO FIORE MISTO 1 KG  SV     08003013905937000000050422   20220405000030000210000F
R02654810361     B203764    202112151800357401367753601031                SPECK A.A.IGP SCUDETTO CUORE 1/1 SV     98003013010313000031134703   20220611000001000009280V
R02654810361     B203764    202112151800357401370563073149                WURSTEL PR.FIORE MISTO 100G.SV          08003013931493000000220322   20220322000024000060000F
